:100000000C94DC010C9404020C9404020C94040281
:100010000C9404020C9404020C9404020C94040248
:100020000C9404020C9404020C94EA270C945928B2
:100030000C9404020C9404020C9404020C94040228
:100040000C9404020C9404020C9404020C94040218
:100050000C9404020C9404020C9404020C94E32A01
:100060000C9404020C94B12A0C948B2A0C94040274
:100070000C9404020C9404020C9404020C940402E8
:100080000C9404020C9404020C9404020C940402D8
:100090000C942D2B0C9404020C9404020C94040276
:1000A0000C9404020C9404020C940402084AD73BFA
:1000B0003BCE016E84BCBFFDC12F3D6C74319ABD37
:1000C00056833DDA3D00C77F11BED9E4BB4C3E915B
:1000D0006BAAAABE000000803F05A84CCDB2D44E4A
:1000E000B93836A9020C50B9918688083CA6AAAA4C
:1000F0002ABE000000803F00000000000000000059
:1001000000000000000000002A002B002800000072
:1001100000000000000000000000000000000000DF
:1001200000000000000000000000000000000000CF
:1001300000000000000000002C001E02340220021B
:1001400021022202240234002602270225022E0266
:1001500036002D003700380027001E001F00200049
:100160002100220023002400250026003302330052
:1001700036022E00370238021F0204020502060270
:100180000702080209020A020B020C020D020E020B
:100190000F021002110212021302140215021602BB
:1001A0001702180219021A021B021C021D022F005C
:1001B0003100300023022D02350004000500060046
:1001C0000700080009000A000B000C000D000E00DB
:1001D0000F0010001100120013001400150016008B
:1001E0001700180019001A001B001C001D002F0228
:1001F0003102300235020000070605040100080A3A
:100200000B0C0D0900000000240027002A002D001F
:10021000300000000000250028002B002E003100D7
:10022000040404040403040502020202040302029B
:10023000020206060606060604040202020404047C
:1002400008020110408040102040804080080204D5
:10025000018040201002011080102040402000004A
:10026000000200090F0000030401000C0000000060
:1002700000000000000000000000000000080B006B
:10028000020202000009040000010202000005242D
:1002900000100105240101010424020605240600C2
:1002A000010705810310004009040100020A000053
:1002B0000007050202400000070583024000000419
:1002C00003090412010002EF0201404123458000AE
:1002D000010102030141726475696E6F204C4C4349
:1002E0000047554E3449522050726F204D69637259
:1002F0006F2050340005010906A101850205071988
:10030000E029E715002501750195088102050C9586
:10031000017508150026FF00190029FF8100050757
:1003200095067508150026E700190029E78100C029
:1003300005010904A10185070509190129201500F6
:1003400025017501952081020501A10009300931BF
:1003500009330934150026FF7F75109504810209C1
:100360003209351580257F750895028102C0050187
:100370000939093915012508950275048102C0055E
:10038000010902A1018506050919012908150025A1
:100390000195087501810205010930093116000037
:1003A00026FF7F75109502810209381581257F751A
:1003B0000895018106C0672C11241FBECFEFDAE03B
:1003C000DEBFCDBF12E0A0E0B1E0E0E6FEE602C095
:1003D00005900D92A630B107D9F725E0A6E0B2E06E
:1003E00001C01D92A038B207E1F711E0CCEDD1E0D9
:1003F00004C02197FE010E940937CB3DD107C9F700
:100400000E94792D0C942E370C940000982F209187
:10041000360381E0213208F043C08091120381113C
:10042000FCCF8091350332E0309312039093110397
:100430009FEF9093100310920F0320930E03A5E1FA
:10044000B3E0EEEEF2E090E0291331C01092ED023D
:100450009091ED02880F892B8093ED028091EC0240
:10046000813049F51092EC028091ED028093BB003F
:100470008091BC0083FDF8CF85EC8093BC00809117
:1004800012038230E1F3809110038F3FB1F080912D
:1004900010038032A1F080911003803391F084E04A
:1004A00010921403109236031092130308953D9195
:1004B00031939F5FC9CF85EEE0CF80E0F1CF82E03E
:1004C000EFCF83E0EDCFFC018091EB02882311F1A7
:1004D0003FB7F89482E08093E9002091F200822FE8
:1004E00090E01816190614F481E090E0882339F0A2
:1004F000289844E64093EA024091F1004083222389
:1005000039F02091F200211103C02BE62093E8007E
:100510003FBF08958FEF9FEF08954091C90250911A
:10052000CA022091C7023091C80242175307B4F49F
:100530009091E8009570E1F39091E80092FD19C068
:100540008093F1008091C9029091CA0201968F7345
:100550009927892B19F48EEF8093E8008091C902C6
:100560009091CA0201969093CA028093C90281E0D9
:10057000089580E00895EF92FF920F931F93CF9319
:10058000DF93F82E192FE62E042F81E0860F880FB7
:100590000E948D0283E00E948D02CF2DD12FEC0EA0
:1005A000FD2EF11CCE15DF05B9F007FF13C0FE01CB
:1005B00084910E948D02182F80E00E948D02812379
:1005C00021968111EFCFDF91CF911F910F91FF9075
:1005D000EF9008958881EDCF81E0F5CFDF92EF9223
:1005E000FF920F931F93CF93DF93D82E8A01EB01D5
:1005F0007B01E40EF51ECE15DF0559F0D7FE12C0C3
:10060000FE0184910E948D0221968111F4CF0FEF9B
:100610001FEFC801DF91CF911F910F91FF90EF90D5
:10062000DF9008958881EECF2FB7F894877080937C
:10063000E9009091E800892F807295FF04C09091A5
:10064000F20080E4891B2FBF0895615030F02091A3
:10065000F100FC0120830196F8CF289884E680936E
:10066000EA020895AF92BF92CF92DF92EF92FF928B
:100670000F931F93CF93DF936C017B018B01040FCA
:10068000151FEB015E01AE18BF08C017D10759F066
:100690006991D601ED91FC910190F081E02DC601A8
:1006A0000995892B79F7C501DF91CF911F910F91A2
:1006B000FF90EF90DF90CF90BF90AF900895809122
:1006C000BF0281110DC082E08093BB0284E0809361
:1006D000BC021092BE021092BD0281E08093BF0264
:1006E0008BEB92E008950F931F93CF93DF931F92AC
:1006F000CDB7DEB782E0898342E450E06DE772E077
:1007000080E80E94EE020E945F03DC0112960D91C8
:100710001C910115110589F0D801ED91FC91028021
:10072000F381E02DBE016F5F7F4FC801099597FDF2
:1007300004C0F80100851185ECCF89810F90DF910D
:10074000CF911F910F910895FC01538D448D252F5A
:1007500030E0842F90E0821B930B541710F0CF965B
:10076000089501970895FC01918D828D981761F08D
:10077000A28DAE0FBF2FB11D5D968C91928D9F5FA4
:100780009F73928F90E008958FEF9FEF0895FC0183
:10079000918D828D981731F0828DE80FF11D858D36
:1007A00090E008958FEF9FEF0895FC01918D228DC9
:1007B000892F90E0805C9F4F821B91098F7399274E
:1007C00008958BE393E00E94D50321E0892B09F47F
:1007D00020E0822F089580E090E0892B29F00E948C
:1007E000E10381110C9400000895FC01A48DA80F71
:1007F000B92FB11DA35ABF4F2C91848D90E0019663
:100800008F739927848FA689B7892C93A089B18982
:100810008C9182748C93938D848D981306C002887A
:10082000F389E02D80818F7D80830895EF92FF9280
:100830000F931F93CF93DF93EC0181E0888F9B8D03
:100840008C8D981319C0E889F989808185FF14C0BF
:100850009FB7F894EE89FF896083E889F9898081E0
:10086000827480839FBF81E090E0DF91CF911F91E0
:100870000F91FF90EF900895F62E0B8D10E00F5F13
:100880001F4F0F731127E02E8C8D8E110CC00FB6E9
:1008900007FCFACFE889F989808185FFF5CFCE0181
:1008A0000E94F503F1CFEB8DEC0FFD2FF11DE35A04
:1008B000FF4FF0829FB7F8940B8FEA89FB89808104
:1008C0008062CFCF682F8BE393E00C941604CF9314
:1008D000DF93EC01888D8823B9F0AA89BB89E88968
:1008E000F9898C9185FD03C0808186FD0DC00FB60E
:1008F00007FCF7CF8C9185FFF2CF808185FFEDCF8C
:10090000CE010E94F503E9CFDF91CF910895CF93F7
:10091000DF931F92CDB7DEB76983DC01ED91FC91C7
:100920000280F381E02D41E050E0BE016F5F7F4F18
:1009300009950F90DF91CF91089583E08093E900AE
:100940008091F200882319F08AE38093E8000895EB
:1009500083E00E94140390E00895CF93DF931F92E9
:10096000CDB7DEB7FC018485958597FD08C02FEFD4
:100970003FEF358724870F90DF91CF910895CE0107
:1009800001960E946302019719F4898190E0F3CFE8
:100990008FEF9FEFF0CF0F931F93CF93DF931F92B3
:1009A000CDB7DEB78C01FC018485958597FF0BC020
:1009B000CE0101960E946302019771F4898190E053
:1009C000F80195878487F801848595850F90DF91DC
:1009D000CF911F910F9108958FEF9FEFF1CFFC0101
:1009E0008485958597FD0BC09FB7F89482E080932E
:1009F000E9008091F2009FBF90E0019608959FB7B3
:100A0000F89482E08093E9008091F2009FBF90E02B
:100A10000895282F30E0F901E25AFD4F9491F90131
:100A2000E15CFD4F8491205E3D4FF901249122232A
:100A300009F430C09923E9F091509F30D0F4E92FA8
:100A4000F0E0EB5DFA4F0C94093753055705340578
:100A50004B054F053905390539055A05600564050B
:100A600068056E0539057205909180009F77909317
:100A70008000E22FF0E0EE0FFF1FEE5EFD4FA5912C
:100A8000B4919FB7F894EC91611132C080958E2398
:100A90008C939FBF0895909180009F7DE8CF9091A7
:100AA0008000977FE4CF94B59F7794BDE2CF94B553
:100AB0009F7DFBCF909190009F7790939000D9CF2E
:100AC000909190009F7DF9CF90919000977FF5CF06
:100AD0009091C0009F779093C000CBCF9091C000C1
:100AE0009F7DF9CF9091C200977F9093C200C1CFB4
:100AF0008E2BCECFCF93DF9390E0FC01E15CFD4FD6
:100B00002491805E9D4FFC0184918823C9F090E080
:100B1000880F991FFC01EC5FFD4FA591B491FC017A
:100B2000EE5EFD4FC591D49161110DC09FB7F89451
:100B30008C91209582238C938881282328839FBFC2
:100B4000DF91CF910895623051F49FB7F8943C91B2
:100B5000822F809583238C93E8812E2BEFCF8FB744
:100B6000F894EC912E2B2C938FBFEACF8251E82F73
:100B7000F0E0E850FE4FE49190917B008E2F880FBB
:100B8000880F80729F7D892B80937B00E770E064E3
:100B9000E0937C0080917A00806480937A00809159
:100BA0007A0086FDFCCF80917800909179000895BD
:100BB0003FB7F8948091B7029091B802A091B90222
:100BC000B091BA0226B5A89B05C02F3F19F0019637
:100BD000A11DB11D3FBFBA2FA92F982F8827BC0197
:100BE000CD01620F711D811D911D42E0660F771FBF
:100BF000881F991F4A95D1F708958F929F92AF92BF
:100C0000BF92CF92DF92EF92FF924B015C010E9464
:100C1000D8056B017C010E94D8056C197D098E09ED
:100C20009F09683E734081059105A8F321E0821A6F
:100C30009108A108B10888EEC80E83E0D81EE11C17
:100C4000F11C81149104A104B10429F7FF90EF90E5
:100C5000DF90CF90BF90AF909F908F9008957F923C
:100C60008F929F92AF92BF92CF92DF92EF92FF92BC
:100C70000F931F93CF93DF93C82E8B017A0180913E
:100C8000EB02811110C08FEF9FEFDF91CF911F9189
:100C90000F91FF90EF90DF90CF90BF90AF909F901B
:100CA0008F907F9008958091CD0280FF05C0809144
:100CB000E00082608093E000CE2DDF2DD12C8AEF02
:100CC000B82E8C2D8770982E8C2D8072882E8C2DAE
:100CD0008074782E9AE3A92E209719F4DD2009F468
:100CE00052C08C2D0E94140381110AC0BA94BB20FB
:100CF00051F261E070E080E090E00E94FD05ECCFF1
:100D00008C171D0611F00CF08C2F9FB7F894909261
:100D1000E9002091E80025FD02C09FBFDDCF282F0C
:100D200030E0C21BD30B882029F08150A0F0109234
:100D3000F100FBCFF801C7FC0AC0815050F041918F
:100D40004093F100FACF44914093F10031968150E5
:100D5000D0F7020F131FDD2021F0A092E800D12C64
:100D6000DCCF8091E80085FD07C0A092E800DD247B
:100D7000D394209791F2F3CF209779F6772069F2F8
:100D8000A092E800CACF5D9884E68093CC02C701A8
:100D90007CCFCF93DF93EC0180911F01882331F04A
:100DA00083E00E942F061816190634F081E090E0C7
:100DB0009B838A8380E090E0DF91CF9108952FB7E5
:100DC000F8946091B3027091B4028091B502909151
:100DD000B6022FBF08950F931F930E94DF06609302
:100DE000E0037093E1038093E2039093E30388EDC3
:100DF00093E00E94CB0497FF1DC00E94DF06009184
:100E0000E0031091E1032091E2033091E303601BC2
:100E1000710B820B930B0091DC031091DD03209189
:100E2000DE033091DF036017710782079307F8F242
:100E30008FEF9FEF1F910F910895CF92DF92EF9266
:100E4000FF92CF930E94EB06FC0197FD4EC08D32BE
:100E5000910521F0C0970A9708F040C0C12CD12C11
:100E60007601C0E0E130F105D1F0ED32F105D9F1C4
:100E7000CF01C0970A9798F4AAE0B0E0A7019601C5
:100E80000E9446346F01FF0FEE08FF08C60ED71E02
:100E9000E81EF91E80E3C81AD108E108F10888EDC0
:100EA00093E00E94AD040E94EB06FC01C0970A97F4
:100EB000C8F2E130F105B1F2CC2341F0F094E094B6
:100EC000D094C094C11CD11CE11CF11CC701B60117
:100ED000CF91FF90EF90DF90CF90089588ED93E051
:100EE0000E94AD04AFCFC1E0DACFC12CD12C760186
:100EF000EDCF85ED8093BC008091BC0084FDFCCFDC
:100F000010921203089520918D02260F3327331F6C
:100F100021323105ECF420911203FC0190E080E0D5
:100F2000243069F082E00895A0918D022191AC01F6
:100F300045595D4FA40FB52FB11D2C93019686170F
:100F400098F380918D02680F60938D0280E0089580
:100F500081E00895089508950895E0916A028091CE
:100F60006902E81730F4F0E0E75BFD4F808190E024
:100F700008958FEF9FEF089590916A028091690222
:100F80002FEF3FEF981748F4E92FF0E0E75BFD4FB4
:100F9000208130E09F5F90936A02C901089580919B
:100FA000690290916A02891B990B0895CF92DF9292
:100FB000EF92FF920F931F93CF93DF937C01CB01AE
:100FC0008A0120911303222389F0EB016B01C40EE7
:100FD000D51ECC15DD0569F06991D701ED91FC9125
:100FE0000190F081E02DC7010995F3CF642F0E9495
:100FF0008307C801DF91CF911F910F91FF90EF9070
:10100000DF90CF900895CF93DF931F92CDB7DEB7D7
:101010006983209113032223F9F0209136032032B3
:1010200058F021E030E0FC013383228390E080E03F
:101030000F90DF91CF91089580911403E82FF0E095
:10104000EB5EFC4F998190838F5F809314038093B4
:10105000360381E090E0ECCF61E0CE0101960E9482
:101060008307F7CFDC01FB0112962C911297848144
:1010700095812817190641F491818081813A31F4D4
:101080009D7F81E0913009F080E008958132E1F7A1
:101090009B3029F482811F968C9381E008959A30C9
:1010A00099F7828150968C93F8CFAF92BF92CF92EE
:1010B000DF92EF92FF920F931F93CF93DF931F92D4
:1010C000CDB7DEB77C0169836A01590141E050E088
:1010D000BE016F5F7F4FFC0183810E942F068C0150
:1010E00097FD0BC0F7018381A501B60180640E94C2
:1010F0002F06080F191F97FD8C01C8010F90DF9173
:10110000CF911F910F91FF90EF90DF90CF90BF9004
:10111000AF900895DC01FB0188E4808389E481833A
:1011200084E482831D969C911D979F709F5B93839F
:101130001D968D919C9124E0969587952A95E1F7CF
:101140008F708F5B848385E00895EF92FF920F93F9
:101150001F93CF93DF93FB012081213871F5238109
:10116000223259F5DC0112964C91248135814217C7
:10117000130619F5EC010B851C85F12CE12C0115EA
:10118000110589F0F801448155816281738180E8FD
:101190000E94EE028F3F980749F0E80EF91ED80131
:1011A0000D911C91ECCF81E08F87C701DF91CF912A
:1011B0001F910F91FF90EF90089590E080E0F6CF9F
:1011C000CF93DF93CDB7DEB769970FB6F894DEBF44
:1011D0000FBECDBFFC01DB018C918F5F8C939E0114
:1011E0002D5F3F4F8DE0D9011D928A95E9F729E0E7
:1011F000298384E08A8391E09D8383E08E832A871C
:1012000021E22B879C879D879F8722E2288B27E0FE
:101210002B8B25E02C8B8E8B20E430E0388F2F8BAE
:10122000998F82818B8395858685998B8A8B838123
:1012300080688D8B49E150E0BE016F5F7F4F80E099
:101240000E94EE0269960FB6F894DEBF0FBECDBFC6
:10125000DF91CF910895CF93DF9380914102811167
:1012600067C081E080933402809335022AE332E044
:1012700030933702209336021092390210923802CE
:101280002BE931E0309331022093300210923C027E
:1012900010923B0210923E0210923D0280933F0258
:1012A0008093400281EC80933A020E945F03FC012C
:1012B000818190913402482F490F5527551F48309E
:1012C00051059CF5A281B381109709F520E332E026
:1012D00033832283208120933202809333028091D2
:1012E0003502820F808320913602A22FB0913702FF
:1012F0008A2F821B8917C8F481813D91C82FD0E0C5
:10130000C35FDE4F38838F5F8183F2CFD901189698
:101310002D913C91199721153105C1F720E332E059
:1013200019963C932E931897D5CF81E08093410274
:1013300080E392E0DF91CF910895CF93DF93EC01AA
:101340000E942B09AE014C5F5F4F28E030E062E065
:10135000DF91CF910C945508CF92DF92FF920F93BB
:101360001F93CF93DF9367FF10C021E030E0FC01B3
:101370003383228310E000E0C801DF91CF911F91F9
:101380000F91FF90DF90CF900895F42EEC01E62F9F
:10139000F0E0EE0FFF1FE850FF4FC590D490E881BA
:1013A000F9810484F585E02D6C2DCE0109958C0121
:1013B000892B11F4F110E0CFD0FE0BC0E881F98148
:1013C0000484F585E02D4F2D60EECE010995082BA4
:1013D000192BD1FE0BC0E881F9810484F585E02D3D
:1013E0004F2D61EECE010995082B192BD2FE0BC0B3
:1013F000E881F9810484F585E02D4F2D62EECE0160
:101400000995082B192BD3FE0BC0E881F9810484C0
:10141000F585E02D4F2D63EECE010995082B192B94
:10142000D4FE0BC0E881F9810484F585E02D4F2DB1
:1014300064EECE010995082B192BD5FE0BC0E8816F
:10144000F9810484F585E02D4F2D65EECE010995D7
:10145000082B192BD6FE0BC0E881F9810484F58591
:10146000E02D4F2D66EECE010995082B192BD7FEE6
:1014700083CFE881F9810484F585E02D4F2D67EE57
:10148000CE010995082B192B77CFFF920F931F934D
:10149000CF93DF93EC01F62E41E00E94AC098C0162
:1014A000892BA9F0E881F9810284F385E02DCE0132
:1014B000099540E06F2DCE010E94AC09892B39F0CF
:1014C000E881F9810284F385E02DCE010995C801F8
:1014D000DF91CF911F910F91FF900895089590E0B3
:1014E00080E008950F931F93CF93DF93EB018A0160
:1014F0000E942B099801AE0167E0DF91CF911F9107
:101500000F910C9455080F931F93CF93DF93EB012A
:101510008A010E942B099801AE0166E0DF91CF910C
:101520001F910F910C945508CF93DF9300D000D0FA
:1015300000D0CDB7DEB7EBE7F4E093838283758309
:101540006483268129839B838A837D836C831E82A7
:1015500046E050E0BE016F5F7F4FCF010E94830ADB
:1015600026960FB6F894DEBF0FBECDBFDF91CF91A8
:101570000895FC01408372836183942F9095DB0171
:1015800011968C911197892311968C93A181B28128
:1015900012968C911297482B12964C9323830895A0
:1015A000CF93C42F91E0909313038093350310924F
:1015B00014031092360388E294E00E9403086C2F13
:1015C00088E294E00E94030881E00E9406026CE336
:1015D00070E080E090E0CF910C94FD058F929F9297
:1015E000AF92BF92CF92DF92EF92FF9282E10E9480
:1015F000B605BC01990F880B990B0E94F43223E0C9
:1016000030E040EA5BE30E94533320E030E040E00A
:101610005FE30E948A3420E030E048EC52E40E940C
:1016200053336B017C0180900B01912CB12CA12CC8
:101630000E94E0359B01AC01281939094A095B0970
:10164000ADE9BFEF0E94543420910C0130E050E02E
:1016500040E0281939094A095B090E9427342D39CD
:101660008FEF3807480758079CF012161306140628
:10167000150684F02C5920939404C701B601FF90FD
:10168000EF90DF90CF90BF90AF909F908F90089594
:1016900021E0F1CF24E6EFCFCF92DF92EF92FF92DD
:1016A000CF93DF937C01EB01660F771F880F991FA3
:1016B00020913C01222399F190936304809362046A
:1016C00070936504609364042EEF30E0D7010E94AC
:1016D0001737CC24CA942FE3D22EE12CF12CA7018A
:1016E00096010E9427342F5731094109510920934F
:1016F000DB022EEF30E0DE010E941737A7019601D2
:101700000E9427342F573109410951092093DC02E7
:10171000DF91CF91FF90EF90DF90CF9008950E94DE
:10172000940AD2CF0F931F9380914501882309F427
:1017300045C00E94DF0600912A0210912B022091E1
:101740002C0230912D02601B710B820B930B6B30BE
:1017500071058105910590F18DEF90E00E94620482
:1017600086E090E00E9462046091DB028BE393E0EC
:101770000E9416046091DC028BE393E00E94160441
:1017800081E090E00E94620481E090E00E946204A7
:101790006091DD028BE393E00E9416046091DE020B
:1017A0008BE393E00E9416040E94DF0660932A02F6
:1017B00070932B0280932C0290932D021F910F9116
:1017C00008951F93CF93DF9341E060E388E50E9483
:1017D000D00A48E060E388E50E94D00AD0E0C0E08B
:1017E00017E080914301FE01189FE00DF11D1124C7
:1017F000EB5AFE4F4081442339F0FE01E25BFE4F7D
:10180000608188E50E94D00A2196C730D10549F74A
:1018100043E363E388E50E94D00A48E060E388E59B
:10182000DF91CF911F910C94D00A8F929F92AF922B
:10183000BF92CF92DF92EF92FF921F93CF93DF93ED
:10184000FC012089222309F472C0F42EE62EEC015B
:10185000662309F444C0442309F441C00E94DF0612
:101860006C837D838E839F83188189816E2D88236D
:1018700041F16B8970E090E080E00E94F43220E05A
:1018800030E048EC52E40E946E354B015C01EF9C65
:10189000B0011124072E000C880B990B0E94F43222
:1018A0009B01AC01C501B4010E9453330E94E03595
:1018B0006B01EB0161E0812F0E947A05209789F48A
:1018C00060E0812FDF91CF911F91FF90EF90DF902B
:1018D000CF90BF90AF909F908F900C9409051B8282
:1018E000C3CFCF3FD10511F461E0EBCFE12FF0E0A2
:1018F000E25AFD4FE491E150EF3008F087C0F0E08C
:10190000EC57F34F0C940937930CA30CA80CB20CB2
:10191000BC0C060D060D060DC60CD00CDA0CE40C42
:10192000F10C060DF90C84B5806884BDC7BCDF914D
:10193000CF911F91FF90EF90DF90CF90BF90AF902D
:101940009F908F90089584B5806284BDC8BCEFCF0E
:1019500080918000806880938000D0928900C0923E
:101960008800E5CF80918000806280938000D092D3
:101970008B00C0928A00DBCF8091800088608093CA
:101980008000D0928D00C0928C00D1CF80919000C9
:10199000806880939000D0929900C0929800C7CF41
:1019A00080919000806280939000D0929B00C092C2
:1019B0009A00BDCF80919000886080939000D09273
:1019C0009D00C0929C00B3CF8091C000806880933E
:1019D000C0008091C0008F7B8093C000C092CF0078
:1019E000A6CF8091C00080628093C000C092D000DA
:1019F0009ECF8091C20088608093C2008091C20017
:101A00008B7F8093C200C092D20091CFC038D105A5
:101A10000CF06ACF55CF8F929F92AF92BF92CF9228
:101A2000DF92EF92FF921F93CF93DF93EC018A81B5
:101A3000680F6A83842F90E09F878E878889882328
:101A400009F44EC08B8181114BC0142F0E94DF0618
:101A5000CC80DD80EE80FF806C197D098E099F09A6
:101A60000E94F2326B017C016C857D8590E080E004
:101A70000E94F2324B015C016A8970E090E080E0E4
:101A80000E94F43220E030E048EC52E40E946E35CF
:101A90009B01AC01C501B4010E946E354B015C0194
:101AA0006A857B8590E080E00E94F2329B01AC0168
:101AB000C501B4010E948B349B01AC01C701B60182
:101AC0000E947C3687FD0CC0412F61E0CE010E9450
:101AD000150C81E08B838A81882311F081508A83E1
:101AE000DF91CF911F91FF90EF90DF90CF90BF904B
:101AF000AF909F908F90089590912F02992391F02D
:101B0000282F30E02E5F3F4F54E1529FC001539F7A
:101B1000900D11248E579B4FFC012189211102C089
:101B20000C940B0D08951F93CF93DF93C82F142FA0
:101B3000D22F462F682F80E00E947C0D412F6C2F02
:101B400081E00E947C0D4D2F6C2F82E0DF91CF91C0
:101B50001F910C947C0D2FEF4FEF6FEF0C94930DB2
:101B6000623049F0633059F0613061F420E040E0C8
:101B70006FEF0C94930D20E04FEF60E0FACF2FEF62
:101B800040E0FBCF862F0C94AB0D0F931F93CF93A8
:101B9000DF9380912E02882311F180913A018823EE
:101BA00009F449C080913D01882309F444C04FEFF6
:101BB00060E080E00E947C0DE1E0F0E0E85CFE4F38
:101BC000808194E1989FF0011124EE57FB4F218909
:101BD000211105C04FEF60E0CF010E940B0DC2E85C
:101BE000D4E088898823E9F08B81882361F10E9401
:101BF000DF060C811D812E813F81AB01BC01401BA2
:101C0000510B620B730B8A859B85B0E0A0E04817EF
:101C100059076A077B0728F04FEF60E0CE010E946A
:101C2000150C649684E0C63ED807D9F6DF91CF91B3
:101C30001F910F9108952FEF4FEF6FEF80E00E94FB
:101C4000930DE0E0BACF8A81882359F34E8560E096
:101C5000CE010E940B0DE5CFCF92EF920F931F9311
:101C6000CF93DF93EC016883488B3B872A871D87DE
:101C70000C87E982CB8A442379F0862F61E00E94A9
:101C80007A054FEF60E0CE01DF91CF911F910F9168
:101C9000EF90CF900C94150CDF91CF911F910F9185
:101CA000EF90CF900895EF92FF921F93CF93DF9321
:101CB0007C0191E050E0440F551F3BE0961738F54A
:101CC000292FE701C90FD11D97FDDA951216ECF403
:101CD0007A9119817303D0011124A40FB51FA75B5A
:101CE000BA4F1303F0011124E40FF51FE75BFA4F1D
:101CF0000D90BC91A02D0190F081E02DEA17FB071B
:101D000024F4188379832150E1CF9F5FD7CFDF91EF
:101D1000CF911F91FF90EF9008958F929F92AF9275
:101D2000BF92CF92DF92EF92FF920F931F93CF93C8
:101D3000DF93EC018090060290900702A0900802C9
:101D4000B090090220E030E040EA51E4C501B4015E
:101D50000E948A340E94E0356B0120E030E040EAC6
:101D600051E4C501B4010E948B340E94E035AB01FF
:101D7000CC16DD061CF4C617D707ACF184EB90E057
:101D80009C01241B350B2C173D072CF48C199D0945
:101D9000C817D9075CF1C6018C549F4F8C179D075B
:101DA00034F4CA018D549F4F8C179D0714F588E6B3
:101DB00091E09C01241B350B2C173D07ECF48C198A
:101DC0009D09C817D907C4F48BE391E0DF91CF9147
:101DD0001F910F91FF90EF90DF90CF90BF90AF9049
:101DE0009F908F9008958DE290E0F0CF87E890E08B
:101DF000EDCF81EE90E0EACF8FEF9FEFE7CFCF926C
:101E0000DF92EF92FF926B017C0128EB3EEF43EBF8
:101E100053E40E947C3618164CF420E030E044EB8A
:101E200053E4C701B6010E948A34EDCF20E030E0D0
:101E3000A901C701B6010E94ED3287FF0BC020E067
:101E400030E044EB53E4C701B6010E948B346B01D0
:101E50007C01ECCFC701B601FF90EF90DF90CF90EF
:101E6000089584302CF493E0981B9C7F890F08958B
:101E70008450F7CFFC019C01285F3F4F90E080E049
:101E800044814111019614823196E217F307C1F79C
:101E90000895CF93DF93DC0190E2960F9830B0F471
:101EA00014968C91149721E030E001C0220F9A958E
:101EB000EAF7442341F0282B14962C9381E090E01C
:101EC000DF91CF91089520952823F6CFFD01369616
:101ED0004423D1F0CD010C96EF012991621771F3E3
:101EE000C817D907D1F790E080E02191211105C0F2
:101EF000A80FB91F16966C93E1CF01968630910515
:101F0000A1F790E080E0DCCF90E080E021916213C7
:101F100005C0A80FB91F16961C92D0CF0196863027
:101F20009105A1F7EECFFC0101900020E9F7319770
:101F3000AF01481B590BBC0188ED93E00C94C90616
:101F40008F929F92AF92BF920F931F93CF93DF9385
:101F5000CDB7DEB7A1970FB6F894DEBF0FBECDBFE9
:101F600019A2423008F44AE08E010F5D1F4F842E03
:101F7000912CB12CA12CA50194010E945934E62F7B
:101F8000B901CA01EA30F4F4E05DD801EE938D01A5
:101F9000232B242B252B79F790E080E0109719F064
:101FA000CD010E94930FA1960FB6F894DEBF0FBE2D
:101FB000CDBFDF91CF911F910F91BF90AF909F90B8
:101FC0008F900895E95CE1CFCF92DF92EF92FF927C
:101FD000CF93DF936B017C016DE288ED93E00E946B
:101FE0008704EC0166277727CB016C197D098E09E0
:101FF0009F094AE00E94A00F8C0F9D1FDF91CF9197
:10200000FF90EF90DF90CF900895EF92FF920F93A3
:102010001F93CF93DF93909112039111FCCF91E026
:1020200090931203909311032FEF209310031092BB
:102030000F03240F20930E039093ED029091ED0275
:10204000880F892B8093ED028091EC02813009F09A
:102050003FC01092EC028091ED028093BB00809112
:10206000BC0083FDF8CF85EC8093BC008091120307
:102070008130E1F380910F03942F841710F4909135
:102080000F03AEEEB2E0E9E4F2E080E0891322C093
:1020900010926A0280936902C42FD0E08C171D064B
:1020A000E9F48B017B0188E294E00E94BC07F70110
:1020B00081937F01CF01801B910B8C179D079CF3AF
:1020C00081E0DF91CF911F910F91FF90EF900895E4
:1020D00085EECACF2D9121938F5FD8CF80E0F1CFCD
:1020E0002F923F924F925F926F927F928F929F9228
:1020F000AF92BF92CF92DF92EF92FF920F931F9316
:10210000CF93DF93CDB7DEB72D970FB6F894DEBF30
:102110000FBECDBF10E025E0222E332433948091F2
:102120000A01181708F0FCC0C12ED12C2C9CF0011C
:102130002D9CF00D1124EA51FB4FA181B2810C912D
:1021400080810823123008F0C5C0C6018F519D4F11
:102150004C01FC01F081FD877601EE0CFF1CEE0CBA
:10216000FF1CF701EE5DFD4F40805180628073805F
:10217000F601EE0FFF1FEC5CFE4FA080B180A114B2
:10218000B10479F52C9CF0012D9CF00D1124EA513D
:10219000FB4F8481801332C0A114B10469F1011195
:1021A0002BC00E94DF06AB01BC014419550966092A
:1021B0007709C501B0E0A0E084179507A607B70727
:1021C000D8F43D85311118C01092E402F401308238
:1021D000113091F480914401882371F010932E0204
:1021E0000BC00E94DF0664197509860997096B30D8
:1021F00071058105910530F61F5F91CF04830111B0
:1022000052C00E94DF06F701EE5DFD4F60837183CF
:10221000828393831130A9F58091E002811131C04E
:1022200090914101992329F0809121028F5F809341
:10223000210200913D01002321F080913A0181119A
:1022400006C0992399F080912102863078F0013000
:1022500009F05FC06FEF7FE390E080E00E944C0BDD
:102260000093E402109221023092380180914201E1
:1022700081113092380180914401823011F4309202
:102280002E022C9CF0012D9CF00D1124EA51FB4FE5
:10229000E38134E0E302F0011124E35EFA4F83812D
:1022A0008F5F8383A9CF03810E94DF06F701EE5D74
:1022B000FD4F6083718382839383113041F41092C8
:1022C000E40210922E021093EE0410923801F401F1
:1022D000108208C08481801709F48ECF0483002304
:1022E00069F0038134E0039FF0011124E35EFA4FAB
:1022F0008381882309F480CF8150D3CF143009F62D
:1023000080913E01882349F0809108018093FD046B
:10231000B8CFF2E0F093EE04A5CF80910901F6CF9B
:1023200046E0BE01695F7F4F82E50E940510882369
:1023300009F45CC08C85982F90959170998386954F
:10234000817091E089278A838F818F57990B288527
:102350002058330B41E02F3131050CF440E04B8322
:1023600041E08F3191050CF440E04C8341E0223E86
:102370003F4F0CF040E04D8321E0823E9F4F0CF038
:1023800020E02E83AE014F5F5F4FABE1B2E080E013
:1023900032E0823008F035E0380FFA012191AF01C8
:1023A0009D91291771F094E0399FF0011124E35EAB
:1023B000FA4F9381222399F19F5F9383FD01319717
:1023C00020838F5F863021F781E08093130382E5BD
:1023D00080933503109214031092360360E088E274
:1023E00094E00E94030881E00E9406022D960FB639
:1023F000F894DEBF0FBECDBFDF91CF911F910F913B
:10240000FF90EF90DF90CF90BF90AF909F908F9014
:102410007F906F905F904F903F902F9008959150D4
:10242000CCCFBC01990F880B990B97FF07C00E9476
:10243000E40F6CE288ED93E00C9487044AE00E947C
:10244000A00FF7CF0F931F93CF93DF93D82FC62FF3
:10245000082F10E0F801E357FE4F8081861730F116
:10246000D11118C0662321F182E494E00E943A0F52
:10247000892B21F082E494E00E949D09109281044E
:1024800060917F047091800480917D0490917E041E
:102490000E94940AF801E45CFE4FC083D73089F4AF
:1024A000DF91CF911F910F910C94E10BD11107C0D7
:1024B000EEE5F4E08FE0DF011D928A95E9F7C0E0D8
:1024C000E9CFDF91CF911F910F9108951F93CF9383
:1024D000DF93182FC82FD0E0C45CDE4F68816F5F98
:1024E0000E942212C881CF5F4FEF6C2F86E994E0E3
:1024F0000E940B0D612F8C2FDF91CF911F910C94B7
:10250000B00DCF92DF92EF92FF92FB01E21BF30B33
:10251000DC01A41BB50B9D010E940F376B017C01F0
:102520009F01DF010E940F376C0D7D1D8E1D9F1DC9
:102530000E94F4320E9497360E94E035CB01FF9052
:10254000EF90DF90CF900895FF920F931F93CF935A
:10255000DF93EC018B01FB01F0800E941134F8162F
:1025600021F06F2DCE010E941934F801F1802196DF
:10257000CE010E941134F81621F06F2DCE010E9479
:102580001934C801DF91CF911F910F91FF900895E9
:10259000EF92FF920F931F93CF93DF9300D0CDB7AD
:1025A000DEB77B01082F10E0000F111FC8010E9449
:1025B00011348983C80101960E9411348A8389816C
:1025C0009A818F3F980709F07C01C7010F900F9007
:1025D000DF91CF911F910F91FF90EF900895FF929F
:1025E0000F931F93CF93DF93062F182F110F180F00
:1025F000C82FD0E0642F70E085E3810F0E94C812DD
:10260000F82E602F70E083E3810F0E94C812FE0154
:10261000EE0FFF1FEE0FFF1FE35EFA4FF082818384
:10262000DF91CF911F910F91FF900895CF92DF928C
:10263000EF92FF920F931F93CF93DF938B01E901EA
:10264000BA01681B790B072E000C880B990B0E94AE
:10265000F4326B017C01BE01601B710B072E000C74
:10266000880B990B0E94F432A7019601DF91CF915C
:102670001F910F91FF90EF90DF90CF900C940A354F
:102680002F923F924F925F926F927F928F929F9282
:10269000AF92BF92CF92DF92EF92FF920F931F9370
:1026A000CF93DF9300D000D000D01F92CDB7DEB71C
:1026B000E82F082E000CFF0BDF01AA5BBE4F6D0157
:1026C0009C919F3F09F0DDC0E62E062E000CFF080E
:1026D000EBE0EE9DD001EF9DB00D1124A75BBA4F4A
:1026E00019969C919F3F09F0CCC089016983382ECF
:1026F000A42E042E000CBB086E02D0011124A75B8F
:10270000BA4F4E02F0011124E75BFA4F2281338168
:102710004081518112966D917C9113978D919C917E
:102720000E94161320EE3EE245E652E40E94533327
:102730002B013C0120E030E0A9010E94ED3287FF2F
:102740000AC020E030E044EB53E4C301B2010E9430
:102750008B342B013C012091370330913803409199
:10276000390350913A03C301B2010E948A340E9496
:10277000FF0E0E94E035CB010E948D0EBC01990F27
:10278000880B990B0E94F4322B013C01F32D2AE5B2
:10279000F202F0011124E957FF4FFF83EE83222458
:1027A0002394230C34E0330D3B832BE02A9DC0019E
:1027B0002B9D900D1124DC01AE5ABA4FBD83AC8322
:1027C000EE81FF81BF01FF0F880B990B0E94F4324D
:1027D0000E94FF0E4B015C01822D0E94310F8A8303
:1027E000C501B4010E94E035072E000C880B990B3F
:1027F0000E94F4329B01AC01C301B2010E94ED3290
:10280000811136C0AC81BD818C918F3F39F0082E8B
:10281000000C990BBA81B817190651F58BE08E9D03
:10282000F0018F9DF00D1124E75BFA4F318629816D
:10283000F6012083D8018C918F5F8C9381E02796DD
:102840000FB6F894DEBF0FBECDBFDF91CF911F91C1
:102850000F91FF90EF90DF90CF90BF90AF909F903F
:102860008F907F906F905F904F903F902F90089542
:10287000EE81FF81BD96FF83EE832394FB812F12AF
:102880009FCF80E0DCCF8F929F92AF92BF92CF928A
:10289000DF92EF92FF920F931F93CF93DF9300D0BD
:1028A000CDB7DEB762E089E10E947A0562E08BE194
:1028B0000E947A0562E08CE10E947A0568EC70E083
:1028C00080E090E00E94FD0589E10E94B6056C0160
:1028D0008BE10E94B6057C018CE10E94B60521E0E7
:1028E000C21AD108E3E8CE16E3E0DE0678F4F1E0A0
:1028F000EF1AF10823E8E21623E0F20638F4019714
:102900008338934018F481E080932F0280912F0246
:1029100090E09A838983BE016F5F7F4F80E190E0F2
:102920000E94A41260E082E10E947A052FECE22E60
:1029300022E0F22E10E070E060E0812F0E94C812C9
:10294000F701819391937F011F5F1630A1F760E13A
:1029500070E086E00E94C8126C0169E070E087E0D8
:102960000E94C8127C01B601DD0C880B990B0E94F5
:10297000F4324B015C01B701FF0C880B990B0E94EC
:10298000F4329B01AC01C501B4010E946E356B01AC
:102990007C01C0922801D0922901E0922A01F09294
:1029A0002B01609136017091370189E00E94C812B5
:1029B0009093370180933601A701960160E070E0A3
:1029C00080E89FE30E940A3520EE3EE245E652E4AD
:1029D0000E9453336B017C0120E030E0A9010E948A
:1029E000ED3287FF0AC020E030E044EB53E4C7013A
:1029F000B6010E948B346B017C01C0920E02D09212
:102A00000F02E0921002F0921102C0920602D092E0
:102A10000702E0920802F0920902A701960160E025
:102A200070E084EB93E40E948A3460931202709306
:102A300013028093140290931502A701960160E09F
:102A400070E084E393E40E948A3460930A027093F6
:102A50000B0280930C0290930D0220E030E044E3DF
:102A600053E4C701B6010E948B3460931602709341
:102A70001702809318029093190261E470E082E2D9
:102A80000E94C8128C0163E270E081E20E94C812C9
:102A90005C0161E070E080E20E94C81241E0892B95
:102AA00009F440E094E6C92EE12C950167E082E844
:102AB00094E00E942C0E64E670E086E20E94C81248
:102AC000C82E62E370E085E20E94C8128C0166E9BC
:102AD00070E084E20E94C8125C0161E070E083E271
:102AE0000E94C81241E0892B09F440E0EE24E394EF
:102AF000950165E086E994E00E942C0E8CE3E82EB7
:102B000081E0F82E1CE0F70161917F0170E0812FD8
:102B10000E94C812F701319780831F5F163199F721
:102B200060910B0170E08EE10E94C81280930B014E
:102B300060910C0170E08FE10E94C81280930C013B
:102B400041E060E080E00E94EF1240E061E081E05F
:102B50000E94EF1240E062E082E00E94EF1240E04B
:102B600064E083E00E94EF1241E061EE84E00E94A5
:102B7000EF1241E062E285E00E94EF1241E06EE177
:102B800086E00E94EF1242E062E587E00E94EF12C9
:102B900042E06FE488E00E94EF1242E061E589E0E4
:102BA0000E94EF1242E060E58AE00E94EF1270E0BE
:102BB00060E085E50E94C812282F40E46FE270E0D3
:102BC00086EE94E00E94B90A61E070E086E50E941A
:102BD000C812282F40E26FE270E08BEE94E00E9472
:102BE000B90A62E070E087E50E94C812282F40E130
:102BF0006FE270E080EF94E00E94B90A63E070E059
:102C000088E50E94C812282F40E169E270E085EF54
:102C100094E00E94B90A65E070E08AE50E94C8125B
:102C2000282F40E163E270E08FEF94E00E94B90A40
:102C300080912F02882309F4DCC087E080930A0189
:102C400064E070E089E50E94C812282F42E063E248
:102C500070E08AEF94E00E94B90A66E070E08BE5CC
:102C60000E94C812282F48E063E270E084E095E0FB
:102C70000E94B90A64E670E08AE20E94C812C82E77
:102C80006CE370E089E20E94C8128C0162E370E09C
:102C900088E20E94C8125C0161E070E087E20E9455
:102CA000C81241E0892B09F440E0EE24E394950139
:102CB00066E08AEA94E00E942C0E64E670E08EE200
:102CC0000E94C812C82E6CE370E08DE20E94C81208
:102CD0008C0162E370E08CE20E94C8125C0161E04A
:102CE00070E08BE20E94C81241E0892B09F440E0B9
:102CF000EE24E394950169E08EEB94E00E942C0EA3
:102D000064E670E082E30E94C812C82E6CE370E0B3
:102D100081E30E94C8128C0162E370E080E30E94AC
:102D2000C8125C0161E070E08FE20E94C81241E0CD
:102D3000892B09F440E0EE24E39495016AE082EDEA
:102D400094E00E942C0E8091F304809308018091FE
:102D5000FD048093090110926A0210926902109298
:102D60001403109236031092120381E08093110332
:102D70001092EC0261E082E00E94090561E083E0CC
:102D80000E9409058091B9008E7F8093B9008091DF
:102D9000B9008D7F8093B90088E48093B80085E402
:102DA0008093BC008AEA97E090938C0280938B0218
:102DB0008BEA97E09093900280938F020E94E10B40
:102DC00045E560EF82E50E94D00A40E06BEF82E5C6
:102DD0000E94D00A0F900F90DF91CF911F910F9119
:102DE000FF90EF90DF90CF90BF90AF909F908F902B
:102DF000089564E070E089E50E94C812282F40E839
:102E000069E270E08AEF94E00E94B90A66E070E03F
:102E10008BE50E94C812282F40E263E270E084E054
:102E200095E00E94B90A67E070E08CE50E94C81244
:102E3000282F42E063E270E089E095E00E94B90A41
:102E400068E070E08DE50E94C812282F40E463E23C
:102E500070E08EE095E00E94B90A69E070E08EE5CE
:102E60000E94C812282F48E063E270E083E195E0F9
:102E70000E94B90A6AE070E08FE50E94C812282F0C
:102E800044E063E270E088E195E00E94B90A5BCF1C
:102E9000CF92DF92EF92FF92CF93DF936B017C0191
:102EA000EA0120E030E044E353E40E947C36181647
:102EB00054F420E030E044EB53E4C701B6010E9433
:102EC0008A346B017C0125E33AEF4EE85CE3C701ED
:102ED000B6010E9453330E9489366B017C01BE010A
:102EE000DD0F880B990B0E94F432A70196010E9416
:102EF0005333DF91CF91FF90EF90DF90CF90089503
:102F0000CF92DF92EF92FF92CF93DF936B017C0120
:102F1000EA0120E030E044E353E40E947C361816D6
:102F200054F420E030E044EB53E4C701B6010E94C2
:102F30008A346B017C0125E33AEF4EE85CE3C7017C
:102F4000B6010E9453330E9469356B017C01BE01BA
:102F5000DD0F880B990B0E94F432A70196010E94A5
:102F60005333DF91CF91FF90EF90DF90CF90089592
:102F70002F923F924F925F926F927F928F929F9289
:102F8000AF92BF92CF92DF92EF92FF920F931F9377
:102F9000CF93DF93CDB7DEB7C256D1090FB6F89401
:102FA000DEBF0FBECDBF2DB73EB7A3963FAF2EAF4E
:102FB000A39781E08093130388E5809335031092F3
:102FC00014031092360366E388E294E00E9403083B
:102FD00081E00E94060240E1BE016F5E7F4F88E5FE
:102FE0000E940510882309F426C680914A01909119
:102FF0004B01A0914C01B0914D0189A39AA3ABA3C1
:10300000BCA344E050E06FEF7FEF86E491E00E94C4
:1030100027371DA24091CF025091D00226EF240302
:10302000B001259F700D11247FAB6EAB4091D10292
:103030005091D2022403C001259F900D11249FAF0F
:103040008EAF20913703309138034091390350916E
:103050003A032AAB3BAB4CAB5DAB50582AA73BA71E
:103060004CA75DA7AE014F5E5F4F3A0169E475E082
:103070007FA36EA38B01212C312CD30113964C918D
:103080001397842F90E09C0154E0220F331F5A9530
:10309000E1F72227337011966C91620F732F711D27
:1030A000BAE0B69F9001B79F300D1124880F991F89
:1030B000880F991F88279370F3016281680F792F19
:1030C000711DB69FC001B79F900D11244F70263F10
:1030D000F7E23F0729F4863F57E2950709F4CEC58A
:1030E0006EA97FA9260F371FAEADBFAD8A0F9B1FFC
:1030F000F80160817181D901A61BB70BBD01B7FF33
:1031000003C0719561957109653F71407CF4F801C8
:1031100062817381DC01A61BB70BBD01B7FF03C041
:10312000719561957109653F714024F05FEFF80179
:1031300051871286D80111963C932E9313969C9337
:103140008E931297263F374251F4863F974239F4C7
:10315000EFEFD8011996EC9319971A961C92D801A3
:1031600018964C9318974D905C90B2017451072EAD
:10317000000C880B990B0E94F4326EA77FA788ABD6
:1031800099AB20E030E044E353EC6AA97BA98CA919
:103190009DA90E94ED3287FFA3C020E030E044EB00
:1031A00053E46AA57BA58CA59DA50E948A34F62FC1
:1031B000E72FDC0125E33AEF4EE85CE36F2F7E2F2B
:1031C000CD010E9453334B015C010E9469356B01B4
:1031D0007C01F8010280F381E02DF9AFE8AFBF0177
:1031E0007F50072E000C880B990B0E94F4326AAFB7
:1031F0007BAF8CAF9DAFC501B4010E9489364B01F6
:103200005C01A70196016EA57FA588A999A90E94D6
:10321000533324966CAF7DAF8EAF9FAF2497A5013B
:1032200094016AAD7BAD8CAD9DAD0E9453339B0183
:10323000AC0124966CAD7DAD8EAD9FAD24970E9400
:103240008A3420E030E040EA55E40E948B340E944A
:10325000E035D80115967C936E931497A5019401DF
:103260006EA57FA588A999A90E9453334B015C01E3
:103270002AAD3BAD4CAD5DADC701B6010E945333E5
:103280009B01AC01C501B4010E948B3420E030E009
:1032900040E755E40E948B340E94E035F8017783C3
:1032A0006683B9E4EB2EB5E0FB2ED12C20E0D314DD
:1032B000E1F0211124C0D70112962D913C91139772
:1032C0004D915C9168AD79ADC2010E948112D39499
:1032D000BBE0EB0EF11C21E0883E934044F3E6CFC7
:1032E000FAA5EBA5ACA5BDA565CF211108C0E1E20B
:1032F000F0E0EC0FFD1FE20DF11D308223943394BA
:10330000F3E06F0E711C055F1F4F24E03212B5CE43
:1033100081E0211080E080933B019DA1E9E4F5E08C
:1033200080E02FEFA185AF3F71F03285321520F498
:1033300032E0321508F4BDC49F5F0A2E000CBB0BAF
:10334000AA5BBE4F8C938F5F3B96843059F79DA349
:1033500041E0421508F089C06DB77EB77BAB6AAB20
:10336000022D10E0580171E0A71AB1088DB79EB781
:10337000801B910B0FB6F8949EBF0FBE8DBFADB7EB
:10338000BEB711967D01EDB7FEB7E01BF10B0FB68E
:10339000F894FEBF0FBEEDBF2DB73EB72F5F3F4F76
:1033A0006901A801BE016F5D7F4FCD010E941E37EC
:1033B000A801BE016F5D7F4FC6010E941E3742E02B
:1033C000622DC7010E94530E43E0622DC6010E9488
:1033D000530E34E0231270C42DA2D7014C912BE080
:1033E0004203F0011124E75BFA4F82E081874093AA
:1033F000480113963C913203F0011124E75BFA4F28
:10340000118630934601F6018381481719F0E3E0F5
:10341000381301C0E2E0EC0DFD2DF11D80812BE0A1
:103420008202F0011124E75BFA4F91E091878093CB
:103430004701D6019C9181E0491711F0391380E0D2
:10344000C80ED11CF60180812BE08202F00111240C
:10345000E75BFA4F93E09187809349014AA95BA902
:103460000FB6F8945EBF0FBE4DBF1DA185E795E076
:10347000AEA1BFA11A962C911A97211738F419966C
:103480002C9119972F3F11F01A961C93EEA1FFA1D2
:103490003B96FFA3EEA38E179F0751F7111103C0B0
:1034A00021100C940625F0914801FEABFF3F09F472
:1034B00019C5E0914601EF3F09F414C58BE0F8020D
:1034C000D0011124A75BBA4FE802F0011124E75B99
:1034D000FA4F228133814081518112966D917C9106
:1034E00013978D919C910E94161320EE3EE245E6C3
:1034F00052E40E9453336EA37FA388A799A720E0CC
:1035000030E0A9010E94ED3287FF0EC020E030E0DC
:1035100044EB53E46EA17FA188A599A50E948B344A
:103520006EA37FA388A799A7209149012EAF2F3FB3
:1035300009F4DDC4A0914701AF3F09F4D8C48BE082
:103540002802F0011124E75BFA4FA802D0011124F0
:10355000A75BBA4F12962D913C9113974D915C91B8
:1035600062817381808191810E94161320EE3EE278
:1035700045E652E40E9453336AAF7BAF8CAF9DAFF8
:1035800020E030E0A9010E94ED3287FF0EC020E06C
:1035900030E044EB53E46AAD7BAD8CAD9DAD0E9451
:1035A0008B346AAF7BAF8CAF9DAF309137033AA7B6
:1035B000409138034EA7509139035AAB60913A03BA
:1035C00068AF113009F0B7C4E6E4F1E090E080E0C4
:1035D000382E01910F3F09F4A8C47BE00702800157
:1035E0001124075B1A4FD801ED90FC90880F991FAA
:1035F000FC01E45DFE4FC080D180A6016AA57EA5D6
:103600008AA998AD0E944817409004015090050186
:103610006090060170900701A30192010E9453334C
:103620004B015C01A6016AA57EA58AA998AD0E94FE
:1036300080179B01AC01C301B2010E9453332B01DF
:103640003C01232D2D7FB701FF0C880B990B211115
:1036500053C40E94F432A30192010E948B340E9451
:10366000E0357093760560937505F801628173818A
:10367000072E000C880B990B0E94F432A5019401CF
:103680000E948B340E94E035709378056093770533
:1036900020910001309101014091020150910301FC
:1036A0002AAF3BAF4CAF5DAF8AA59EA5AAA9B8AD26
:1036B0008EA39FA3A8A7B9A76EA17FA188A599A54E
:1036C0000E94E0358B01653B710514F008561140EE
:1036D0006AA57EA58AA998AD0E94E0359B01653B4D
:1036E000710514F028563140021B130B0D5E1F4F5D
:1036F0000732110560F020E030E0A9016AA57EA53F
:103700008AA998AD0E94ED3281110C94062520E023
:1037100030E044EB52E46AA57EA58AA998AD0E94E8
:103720007C36181674F420E030E047E853E46AA5CC
:103730007EA58AA998AD0E94ED3287FF02C00C9445
:1037400006252EA13FA148A559A520933703309304
:1037500038034093390350933A034AAD5BAD6CADE7
:103760007DAD40930001509301016093020170937D
:103770000301609175057091760579AF68AF80910E
:103780007705909178059BAF8AAF072E000C880BC8
:10379000990B0E94F43220E030E040EA55E40E94A8
:1037A0008A349B01AC0150582AA73BA74CA75DA7C0
:1037B000CEA0DFA0E8A4F9A4F7FAF094F7F8F0940B
:1037C00020E030E044E353EC6EA17FA188A599A5E9
:1037D0000E94ED3287FF0AC020E030E044EB53E462
:1037E000C701B6010E948A346B017C0125E33AEFE0
:1037F0004EE85CE3C701B6010E9453332B013C0144
:103800000E9469354B015C014AAD5BADBA01550FB1
:10381000880B990B0E94F43220E030E040E755E439
:103820000E948A346B017C01C301B2010E94893677
:103830006EA37FA388A799A7A50194016AA57BA57C
:103840008CA59DA50E9453332B013C012EA13FA1C5
:1038500048A559A5C701B6010E9453339B01AC018D
:10386000C301B2010E948B3420E030E040EA55E40D
:103870000E948B34562E472E382E292EC701B601B2
:103880009058A50194010E9453336B017C012EA135
:103890003FA148A559A56AA57BA58CA59DA50E9419
:1038A00053339B01AC01C701B6010E948B3420E069
:1038B00030E040E755E40E948B346EA37AA73C01C8
:1038C00060910401709105018091060190910701BA
:1038D00024966CAF7DAF8EAF9FAF24979CE2E92E0C
:1038E00091E0F92ECE0101966C01A6E4B1E0BFAFE4
:1038F000AEAFE3EDF2E0FFABEEABD7010D911D9162
:103900007D0117FF02C00C948D24B1E0BAABAEADBF
:10391000BFADED91BFAFAEAFEEA7AEA9BFA96D91A0
:103920007D91BFABAEAB072E000C880B990B0E94AC
:10393000F43220E030E04AE754E40E946E359B0107
:10394000AC0160E070E080E89FE30E948A344B01A4
:103950005C01BEA5BF3F09F4E4C72BE0B202F00151
:103960001124E75BFA4F628173812AAD3BAD48AD0C
:1039700059AD808191810E9481122AA9AC01240352
:10398000B001259F700D1124072E000C880B990B98
:103990000E94F432A50194010E945333D6016D9325
:1039A0007D938D939C931397F4E0CF0ED11C24E369
:1039B00031E02E153F0509F0A0CF80913F0188230B
:1039C00009F43FC0C0902801D0902901E0902A015D
:1039D000F0902B012EEB3FE94AEA5FE3C701B60105
:1039E0000E94ED32882369F12EEB3FE94AEA5FE35A
:1039F000C701B6010E947C3618160CF0AAC7A701B1
:103A000096016EEB7FE98AEA9FE30E946E356B01B7
:103A10007C01AC019B0169857A858B859C850E9420
:103A2000533369877A878B879C87A70196016981C1
:103A30007A818B819C810E94533369837A838B8343
:103A40009C8320E030E040EA55E4652D742D832D01
:103A5000922D0E94ED3287FFA9C729853A854B85B3
:103A60005C85652D742D832D922D0E948A3424E06F
:103A700020931A025AAE4EAAC32CD22C562E472E91
:103A8000382E292E4FEF5FE15BAB4AAB6FEF7FE340
:103A90007FA76EA710911A0220E030E040E755E4BE
:103AA0006EA17AA5C3010E94ED3287FF96C72D85CE
:103AB0003E854F8558896EA17AA5C3010E948A343C
:103AC000186010931A02EEA0FAA46EAE21967FAE93
:103AD00021976EA37AA73C01AFEFBFE1B9AFA8AFC2
:103AE00010E000E0652D742D832D922D0E94E035AD
:103AF0004B0160E074E168197909072E000C880B0E
:103B0000990B0E94F4321B012C016AAD7EA9C601FB
:103B10000E94E03568197909072E000C880B990B73
:103B20000E94F4329B01AC01C201B1010E946E35CA
:103B30004B015C016AA97BA92EA53FA5621B730BF3
:103B4000072E000C880B990B0E94F4329B01AC01EC
:103B5000C501B4010E9453334B015C014EA55FA522
:103B6000BA01550F880B990B0E94F4329B01AC01EE
:103B7000C501B4010E948B3420E030E040E05FE3F7
:103B80000E948B340E94E0357093E8026093E70254
:103B90006EA17AA5C3010E94E0354B0160E07FE091
:103BA00068197909072E000C880B990B0E94F432D2
:103BB0002B013C01B7018EAD21969FAD21970E944C
:103BC000E03568197909072E000C880B990B0E94C3
:103BD000F4329B01AC01C301B2010E946E356B014E
:103BE0007C0168AD79AD601B710B072E000C880B52
:103BF000990B0E94F4329B01AC01C701B6010E94EF
:103C000053336B017C01B801110F880B990B0E9493
:103C1000F4329B01AC01C701B6010E948B3420E055
:103C200030E040E05FE30E948B340E94E035709307
:103C3000E6026093E502A3968EAD9FADA3970FB603
:103C4000F8949EBF0FBE8DBFCE59DF4F0FB6F894CC
:103C5000DEBF0FBECDBFDF91CF911F910F91FF90BF
:103C6000EF90DF90CF90BF90AF909F908F907F901C
:103C70006F905F904F903F902F900895D8011196CC
:103C80009C938E9313969C938E931297EFEF1996B5
:103C9000EC9319971A961C921A9718961C921897DB
:103CA00015969C938E93149717969C938E931697C4
:103CB00026CB2187128647CB8DA132E0231235C057
:103CC0008130B9F502501109D601A00FB11FF601DC
:103CD000EA0DFB1D9E012B5D3F4F4C91608181E001
:103CE0000E9440139E012B5D3F4FD60111964C91CF
:103CF00011976C9183E00E9440139E012B5D3F4F12
:103D0000F7014181608182E00E9440130E0D1F1D6A
:103D1000EA0CFB1C9E012B5D3F4FD8014C91F70133
:103D2000608180E00E94401399CB821508F096CB09
:103D3000C9CF811193CBD70111960C911197E02F28
:103D4000002E000CFF0BFBA7EAA71C91212F012ED0
:103D5000000C330B3FA72EA7EBE01E02D00111246D
:103D6000A75BBA4FED90FC9011971296CD90DC9026
:103D70000E02F0011124E75BFA4FA080B18082802F
:103D800093809401A501B601C7010E94161320EE8D
:103D90003EE245E652E40E9453332B013C0120E011
:103DA00030E0A9010E94ED3287FF0AC020E030E038
:103DB00044EB53E4C301B2010E948B342B013C015C
:103DC00020913703309138034091390350913A03E1
:103DD000C301B2010E948A340E94FF0E0E94E035A6
:103DE000CB010E948D0E8D32910509F035C620E081
:103DF0003EE150E040E0B601C7010E9481122C0173
:103E000020E03EE150E040E0B401C5010E94811293
:103E10003C0130E020E040E058E2B601C7010E94DA
:103E200081127C0130E020E040E058E2B401C5019D
:103E30000E9481126C01B0901A02640C751CB301CF
:103E4000770C880B990B0E94F4322B013C01EC0C8F
:103E5000FD1CB701FF0C880B990B0E94F4329B01EB
:103E6000AC01C301B2010E947C36181664F58B2D9B
:103E70008970893061F530E0A3E02BE06EA57FA565
:103E8000269FC001279F900D1124875B9A4FFC014C
:103E9000A1870A2E000CBB0BAA5BBE4F1C934AA540
:103EA0005BA5249FD001259FB00D1124A75BBA4FBD
:103EB00019963C93E32F330FFF0BEA5BFE4F008311
:103EC00082E08DA3CBCA8B2D86708630A1F631E0BF
:103ED000A2E0D3CF8B2D8370833009F008C630E089
:103EE000A1E0CBCF1EA21FA218A619A61DCB1AAE09
:103EF0001BAE1CAE1DAE59CB0E94F432A50194013D
:103F00000E948A340E94E0357093760560937505AF
:103F1000D80112966D917C91072E000C880B990B9D
:103F20000E94F432A3019201ABCB0196843091053B
:103F300009F04ECBADCB143009F0F1C280E090E037
:103F4000A0E8BFE38093040190930501A0930601CC
:103F5000B09307013091470121963FAF21975BE075
:103F6000B52E4B2D340380011124075B1A4FD80165
:103F700012966D917C91072E000C880B990B0E9474
:103F8000F43228966CAF7DAF8EAF9FAF2897F801C3
:103F900060817181072E000C880B990B0E94F4320E
:103FA0002B013C012B2D3EAD320380011124075B18
:103FB0001A4FD80112966D917C91072E000C880B38
:103FC000990B0E94F4322C966CAF7DAF8EAF9FAFF1
:103FD0002C97F80160817181072E000C880B990BDA
:103FE0000E94F43260966CAF7DAF8EAF9FAF60974A
:103FF000F09146016596FFAF65972B2D3F2F320359
:1040000080011124075B1A4FD80112966D917C91A3
:10401000072E000C880B990B0E94F43269966CAF46
:104020007DAF8EAF9FAF6997F80160817181072ED8
:10403000000C880B990B0E94F4326B017C012B2D34
:104040003EA9320380011124075B1A4FD801129652
:104050006D917C91072E000C880B990B0E94F43215
:104060006D966CAF7DAF8EAF9FAF6D97F80160819D
:104070007181072E000C880B990B0E94F4324B01C2
:104080005C016D962CAD3DAD4EAD5FAD6D97C7013A
:10409000B6010E94533364966CAF7DAF8EAF9FAF75
:1040A0006497A501940169966CAD7DAD8EAD9FAD11
:1040B00069970E9453339B01AC0164966CAD7DAD52
:1040C0008EAD9FAD64970E948A3464966CAF7DAFCD
:1040D0008EAF9FAF649760962CAD3DAD4EAD5FAD9A
:1040E0006097C301B2010E948A34A1966CAF7DAF84
:1040F0008EAF9FAFA1972C962CAD3DAD4EAD5FAD71
:104100002C97C301B2010E9453332B013C016096EE
:104110002CAD3DAD4EAD5FAD609728966CAD7DADDD
:104120008EAD9FAD28970E9453339B01AC01C30114
:10413000B2010E948A342B013C01A5019401C70100
:10414000B6010E948A344B015C012C962CAD3DAD2A
:104150004EAD5FAD2C9728966CAD7DAD8EAD9FAD0D
:1041600028970E948A3428966CAF7DAF8EAF9FAFA0
:1041700028976D962CAD3DAD4EAD5FAD6D976996B0
:104180006CAD7DAD8EAD9FAD69970E948A342C9643
:104190006CAF7DAF8EAF9FAF2C9728962CAD3DAD09
:1041A0004EAD5FAD2897C501B4010E9453336B013A
:1041B0007C012C962CAD3DAD4EAD5FAD2C97A196FC
:1041C0006CAD7DAD8EAD9FADA1970E9453339B0129
:1041D000AC01C701B6010E948A346B017C01A19633
:1041E0002CAD3DAD4EAD5FADA19764966CAD7DAD90
:1041F0008EAD9FAD64970E94533360966CAF7DAFD8
:104200008EAF9FAF6097A5019401C301B2010E94D8
:1042100053339B01AC0160966CAD7DAD8EAD9FAD0F
:1042200060970E948A34A70196010E946E350E9411
:10423000E0351B01709376056093750528962CADCB
:104240003DAD4EAD5FAD289764966CAD7DAD8EAD46
:104250009FAD64970E9453334B015C012C962CADAB
:104260003DAD4EAD5FAD2C97C301B2010E945333FB
:104270009B01AC01C501B4010E948A34A7019601DB
:104280000E946E350E94E0353B0170937805609383
:10429000770566E4862E61E0962E70E2472E71E087
:1042A000572EECE2AE2EE1E0BE2EE12CFBE0FF2E1D
:1042B000D401ED914D01BF2DEB02F0011124E75B1C
:1042C000FA4FC080D180028113819301A101B8010E
:1042D000C6010E948112E1E0EE1508F019C1D50176
:1042E0008D939C93E3948E2D0E94310FE82F880FBD
:1042F000FF0BEA5BFE4FE0812F2DE202F00111245B
:10430000E75BFA4F2281338140815181B801C601B8
:104310000E948112D2018D939D932D01B2E0AB0ECC
:10432000B11CE4E0EE12C4CF65962FAD65973F2D2A
:104330002302F0011124E75BFA4F20803180428094
:10434000538021964FAD21974302F0011124E75B82
:10435000FA4FA080B180028113819801A501B201BA
:10436000C1010E94161320EE3EE245E652E40E948F
:1043700053336B017C0120E030E0A9010E94ED3253
:1043800087FF0AC020E030E044EB53E4C701B601E8
:104390000E948B346B017C012EA13FA148A559A539
:1043A000C701B6010E948A340E94FF0E60930A0280
:1043B00070930B0280930C0290930D025EA96BE048
:1043C0005602F0011124E75BFA4F60807180C280D1
:1043D000D3809801A501B601C3010E94161320EEF7
:1043E0003EE245E652E40E9453334B015C0120E07B
:1043F00030E0A9010E94ED3287FF0AC020E030E0E2
:1044000044EB53E4C501B4010E948B344B015C01C1
:104410002EA13FA148A559A5C501B4010E948A3427
:104420000E94FF0E60930E0270930F0280931002A1
:10443000909311027EAD8BE07802F0011124E75BCE
:10444000FA4F00811181E280F3809701A801B60143
:10445000C3010E94161320EE3EE245E652E40E949C
:1044600053334B015C0120E030E0A9010E94ED32A2
:1044700087FF0AC020E030E044EB53E4C501B401FB
:104480000E948B344B015C012EA13FA148A559A588
:10449000C501B4010E948A340E94FF0E609312028B
:1044A0007093130280931402909315029701A80150
:1044B000B201C1010E94161320EE3EE245E652E42D
:1044C0000E9453336B017C0120E030E0A9010E947F
:1044D000ED3287FF0AC020E030E044EB53E4C7012F
:1044E000B6010E948B346B017C012EA13FA148A52F
:1044F00059A5C701B6010E948A340E94FF0E60933D
:104500001602709317028093180290931902D4C870
:10451000919581959109F50191838083E3CE9EA9C0
:104520009F3F19F1809146018F3FF9F02AA53EA5E2
:104530004AA958AD6EA17FA188A599A50E948A3489
:10454000209100013091010140910201509103013D
:104550000E948B340E94FF0E6AAF7BAF8CAF9DAF81
:1045600090E082E0AFEFAEAB27C0809147018F3F74
:1045700009F4BFC2BEADBF3F09F409C120910001DB
:104580003091010140910201509103016AAD7BAD70
:104590008CAD9DAD0E948A342AA53EA54AA958AD8E
:1045A0000E948B340E94FF0E6EA37FA388A799A759
:1045B00091E083E0EFEFEEABE92F990FFF0B22962E
:1045C000FFAFEEAF2297EA5BFE4FE0812E2F0E2E5B
:1045D000000C330B2A963FAF2EAF2A97A82E880FD8
:1045E000BB08D501AA5BBE4FAC914A2F0A2E000C26
:1045F000550B26965FAF4EAF26978BE0A802D001F1
:104600001124A75BBA4F0D911C91119712964D90F2
:104610005C90E802F0011124E75BFA4F6081718140
:104620007FAF6EAF628073809301AB01B201C801AE
:104630000E948112BC01990F880B990B0E94F432E1
:104640006B017C01F501EE0FFF1FE45DFE4F208042
:1046500031804801012E000CAA08BB087EA97F3FCB
:1046600009F0ABC037FE03C0319421943108229683
:10467000EEADFFAD2297EE0FFF1FE45DFE4F6081B0
:10468000718177FF03C0719561957109620D731D8A
:10469000072E000C880B990B0E94F4322B013C0171
:1046A000AC019B01C701B6010E946E356093040105
:1046B000709305018093060190930701B101330CBB
:1046C000880B990B0E94F432A30192010E946E356F
:1046D0006B017C016EAD7FAD601B710B072E000C72
:1046E000880B990B0E94F432A70196010E94533364
:1046F0002B013C01C501B4010E94F4329B01AC01C5
:10470000C301B2010E948B340E94E035709376059C
:10471000609375058BE026964EAD5FAD2697849F1E
:10472000F001859FF00D1124E75BFA4F02811381A0
:104730002A966EAD7FAD2A97869FF001879FF00D78
:104740001124E75BFA4F62817381601B710B072EA6
:10475000000C880B990B0E94F432A70196010E946D
:1047600053336B017C01B801110F880B990B0E9428
:10477000F4329B01AC01C701B6010E948B340E9448
:10478000E03570937805609377050C945C1BFEA967
:10479000FF3F09F0BBC1909146019F3F11F40C947B
:1047A0005C1B8F3F09F0B7C13EAD93E080E0A3E012
:1047B0003F3F09F0D8CE0C945C1B93014EAD5FAD2A
:1047C000B201C8010E94161320EE3EE245E652E413
:1047D0000E9453332B013C0120E030E0A9010E94EC
:1047E000ED3287FF0AC020E030E044EB53E4C30120
:1047F000B2010E948B342B013C017EA9072F770F59
:10480000110BF801EE0FFF1FEE0FFF1FE65FFD4FCC
:104810002081318142815381C301B2010E948A34D7
:104820000E94FF0E6EA37FA388A799A72AA53EA585
:104830004AA958AD0E948A342091000130910101AB
:1048400040910201509103010E948B340E94FF0E9F
:104850006AAF7BAF8CAF9DAF000F111FF801E05E18
:10486000FE4F60817181072E000C880B990B0E940E
:10487000F4329B01AC01C701B6010E946E356B0199
:104880007C01C0920401D0920501E0920601F092F1
:104890000701B101330C880B990B0E94F432A70178
:1048A00096010E9453330E94E0356B01AB016AA56B
:1048B0007EA58AA998AD0E9480172B013C01C501F5
:1048C000B4010E94F432A30192010E948B340E9431
:1048D000E0357093760560937505A6016AA57EA5FF
:1048E0008AA998AD0E9448176B017C018BE026963F
:1048F000AEADBFAD26978A9FF0018B9FF00D1124BE
:10490000E75BFA4F62817381072E000C880B990BCD
:104910000E94F432A701960130CFEFEFEAAB0C947E
:10492000871CB801110F880B990B0E94F432249652
:104930002CAD3DAD4EAD5FAD24970E945333A50124
:1049400094010E945333F6016083718382839383C1
:104950002BC82EEB3FE94AEA5FE3C701B6010E948C
:10496000ED3287FF6EC82EEB3FE94AEA5FE3C701ED
:10497000B6010E946E356B017C01AC019B016D8517
:104980007E858F8598890E9453336D877E878F87B8
:10499000988BA70196016D817E818F8198850E94F9
:1049A00053336D837E838F8398874BC829813A81E7
:1049B0004B815C81652D742D832D922D0E948A344C
:1049C0006AAF7EAB6C0181E080931A021BAA1AAA1F
:1049D0008FEF9FE19FA78EA75DC82D813E814F81FC
:1049E00058856EA17AA5C3010E948A347B018EAFDF
:1049F00021969FAF2197812F826080931A02EFEF5B
:104A0000FFE3F9AFE8AF0FEF1FE16CC88FEF8093C2
:104A100052051092530580935D0510925E058093B8
:104A200068051092690580937305109274051092C1
:104A30003703109238031092390310923A0380E042
:104A400090E0A4EBB2E48093000190930101A09365
:104A50000201B0930301EFC88B33914011F00C9425
:104A60002E1A20E03EE140E058E2B601C7010E9464
:104A700081122C0120E03EE140E058E2B401C50182
:104A80000E9481123C0130E020E050E040E0B6019D
:104A9000C7010E9481127C0130E020E050E040E03C
:104AA000B401C5010E9481126C01B0901A02640C1D
:104AB000751CB301770C880B990B0E94F4322B0103
:104AC0003C01EC0CFD1CB701FF0C880B990B0E94FC
:104AD000F4329B01AC01C301B2010E947C3618166E
:104AE0000CF0F8C98B2D8C708C3009F0F8C933E0CC
:104AF000EFC95EA95F3F09F44ECE2EAD2F3F09F4FA
:104B00004ACE93E082E072E07EAB56CD91E082E047
:104B100061E06EAB51CD91E080E01EAA4DCD2F92A9
:104B20003F924F925F926F927F928F929F92AF923D
:104B3000BF92CF92DF92EF92FF920F931F93CF938A
:104B4000DF93CDB7DEB76A970FB6F894DEBF0FBE1E
:104B5000CDBF8F8B4FEF60E082E894E00E94150C90
:104B60004FEF60E086E994E00E94150C6FEF7FE163
:104B70008FEF9FE10E944C0B0E94920B8CE0EFECB8
:104B8000F2E0DE01119601900D928A95E1F7109204
:104B9000D0021092CF021092D2021092D102109243
:104BA000D4021092D3021092D6021092D502109223
:104BB000D8021092D7021092DA021092D9026E0136
:104BC0002DE0C20ED11C88E0F60111928A95E9F71A
:104BD0001DE3E091E90424E0E202F0011124E35E28
:104BE000FA4F838181110BC0E091EE0434E0E302BF
:104BF000F0011124E35EFA4F8381882359F01150AC
:104C000049F00E9470106CE370E080E090E00E9438
:104C1000FD05DFCF81E08093EE0480913D018A8F16
:104C200090914101998F10923F0110923D01109295
:104C30004101EF89E11194C0F6E0F88F312CEE24A8
:104C4000EA94AFE1FA2E0FEF1FE10E94C50D0E941A
:104C500070100E94B8179091240580912305992324
:104C600009F44AC181115BC0311088C0E6E4F1E06B
:104C700091919F3F09F481E02AE431E02E173F072C
:104C8000B9F7811170C06091750570917605072E96
:104C9000000C880B990B0E94F43220E030E040E2D7
:104CA00051E40E946E3520E030EC4FEF53E40E9457
:104CB0008A340E94E0357093D0026093CF026091F5
:104CC000770570917805072E000C880B990B0E94D0
:104CD000F43220E030E040E251E40E946E3520E002
:104CE00030EC4FEB53E40E948A340E94E03570931D
:104CF000D2026093D10280E00E94AB0D4FEF60E0E2
:104D000086E994E00E940B0DE2E03E2EEE24EA9448
:104D1000FFE1FF2E09E919E331E03093230580918B
:104D20002005811107C08F89882309F41BC192E0F7
:104D3000391218C1E32DF0E0EE0FFF1FA1E0B0E043
:104D4000AC0FBD1FAE0FBF1FE153FD4F832D86304B
:104D500009F4DEC02D913D91219331938F5FF7CF00
:104D600022E0288F6BCF62E081E00E94B00D4FEF10
:104D700062E086E994E00E940B0DCECF8DEF830DAB
:104D80000E94310FE82F880FFF0BEA5BFE4F8081F6
:104D90008F3F09F48DC07EEF272E230C822D0E94B9
:104DA000310FE82F880FFF0BEA5BFE4F80818F3FAA
:104DB00009F47EC08FEF830D0E94310FE82F880F1A
:104DC000FF0BEA5BFE4F80818F3F09F471C0A0901A
:104DD0007505B090760580907705909078059401E0
:104DE000A50160E07FE080E094E10E9481122C0147
:104DF000622C022C000C7708F301EA5BFE4FE08185
:104E00003BE0E302F0011124E75BFA4F628173811A
:104E10009401A501808191810E9481125C01660C40
:104E2000771C88248394912C8C0E9D1E860C971CD5
:104E3000B201550C880B990B0E94F4322DEC3CEC1E
:104E40004CE45FE30E946E352B013C01B501BB0CC5
:104E5000880B990B0E94F4329B01AC01C301B20193
:104E60000E946E359B01AC0160E070E080E89FE33A
:104E70000E948A3420E030E04AE754E40E94533331
:104E80000E94E035F40175876487222011F1F1E07A
:104E90002F1631F122E0221651F180E00E94AB0D75
:104EA0004FEF60E086E994E00E940B0D33940AC056
:104EB00062E081E00E94B00D4FEF62E086E994E08D
:104EC0000E940B0D68EC70E080E090E00E94FD0510
:104ED00023CF46E6E42E46E0F42E0FEF1FE1DDCFB0
:104EE000EE24EA943FE1F32E06E616E0D6CF29E958
:104EF000E22E29E3F22EF1CF882309F410CF10928D
:104F0000230568EC70E080E090E00E94FD0507CF8B
:104F100081E080931F05FF89F11143C08FECE82EDB
:104F200082E0F82E8601B12C3B1439F121E02B15DB
:104F300038F4F801349780819181F701918380835F
:104F4000F701819191917F019E8B8D8BBE016B5EEC
:104F50007F4FC8018C199D090E94A412B3940E5F63
:104F60001F4FE2CFB701C8010E944C0B0E94920B69
:104F7000E88D3E1608F469CECECFFA8DF0933D0150
:104F800081E0298D211101C080E08093410163E01F
:104F900084E00E94B00D4FEF63E086E994E00E9448
:104FA0000B0D6A960FB6F894DEBF0FBECDBFDF9132
:104FB000CF911F910F91FF90EF90DF90CF90BF9016
:104FC000AF909F908F907F906F905F904F903F90A9
:104FD0002F9008951F920F920FB60F9211248F9366
:104FE0009F938091E1009091E100937F9093E10085
:104FF00083FF0FC01092E90091E09093EB001092B4
:10500000EC0092E39093ED001092EB0298E0909305
:10501000F00082FF22C093E09093E9009091F200AB
:10502000992319F09AE39093E8009091CC02992388
:1050300041F09091CC0291509093CC02911101C01B
:105040005D9A9091EA02992341F09091EA02915081
:105050009093EA02911101C0289A84FF18C08091B0
:10506000E2008E7E81608093E2008091E1008F7E7D
:105070008093E1008091CD028E7E80618093CD028D
:105080009F918F910F900FBE0F901F90189580FFEA
:10509000F7CF8091E2008E7E80618093E200809164
:1050A000E1008E7E8093E1008091CD028E7E816052
:1050B000E5CF1F920F920FB60F921124CF92DF927D
:1050C000EF92FF920F931F932F933F934F935F9312
:1050D0006F937F938F939F93AF93BF93EF93FF93C0
:1050E000CF93DF93CDB7DEB76C97DEBFCDBF109205
:1050F000E9008091E80083FF25C068E0CE01459675
:105100000E94250382EF8093E8008D8987FF39C0D4
:105110009091E80090FFFCCF982F907609F034C171
:105120009E894F89588D2F89F88C911131C0803814
:1051300061F58091CE028093F1001092F1008EEF24
:105140008093E8006C960FB6F894DEBF0FBECDBF1B
:10515000DF91CF91FF91EF91BF91AF919F918F918F
:105160007F916F915F914F913F912F911F910F917F
:10517000FF90EF90DF90CF900F900FBE0F901F9099
:1051800018959EEF9093E800C7CF1092F100D5CF0D
:10519000913059F48111D3CF4130510581F680917E
:1051A000CE028D7F8093CE02CACF933049F4811115
:1051B000C6CF4130510519F68091CE028260F2CF00
:1051C000953041F48091E80080FFFCCF2068209367
:1051D000E300B5CF963009F0A9C00B8D1C8D22E0FD
:1051E0001092E9001092CA021092C902F2122EC067
:1051F0001092C8021092C7020E9473031F8299E0A6
:105200009983FA8291E09E8390EA98879AEF998732
:105210002091C9023091CA02275F3F4F3C832B8304
:105220008D831092E9001092CA021092C902109365
:10523000C8020093C70249E050E0BE016F5F7F4F94
:1052400080E00E94EE020E94730379CF1093C8029F
:105250000093C7020E945F03DC0112960D911C911E
:105260000115110509F451C1D801ED91FC9104809B
:10527000F581E02DBE016B5E7F4FC8010995009757
:1052800009F03EC1F80100851185EACFF3E0FF1275
:105290000EC08F89882309F440C0823061F440E851
:1052A00063E181EE92E00E94BB02811148CF81E26E
:1052B0008093EB0047CF813029F440E86BE085ED27
:1052C00092E0F1CF833099F70E945F03DC011296E0
:1052D000ED90FC908E010F5F1F4F6801E114F10407
:1052E00079F0D701ED91FC910680F781E02DB801AE
:1052F000C7010995080F111DF701E084F184EECF75
:10530000D8011C92F60101900020E9F73197BF0106
:105310006C197D0940E0C601C6CF6FEB72E0FB015E
:10532000449150E080E80E94EE0209CF973009F4E2
:10533000BECF983021F481E08093F10000CF993006
:1053400009F0FDCE837009F0B2CFEEE0F1E081E02C
:1053500031E096E32191222371F08093E9003093AC
:10536000EB00DF0111972C912093EC009093ED005E
:105370008F5F873079F78EE78093EA001092EA001A
:105380008F898093EB02DBCE8B8D9C8D1092E90090
:105390001092CA021092C9029093C8028093C70269
:1053A000898D811192C08E899D89913A49F481320B
:1053B00009F07DCF47E050E068E171E080E0B3CFD5
:1053C000913209F074CF833269F48F89988DB0E0FF
:1053D000A0E08093140190931501A0931601B0935F
:1053E0001701ADCE803269F48091E80082FFFCCFD6
:1053F00067E088E191E00E9425038BEF8093E8004D
:105400009ECE823209F09BCE8F8980931F01EEEFF2
:10541000FFE7859194918B3F9C4D51F1E0E0F8E0DE
:105420008091180190911901A0911A01B0911B016E
:10543000803B9440A105B105F1F480911F0180FDEE
:105440001AC0EE3F8AE0F80789F587E797E791836E
:105450008083809160008093CB0288E19BE00FB64F
:10546000F894A895809360000FBE9093600067CE7B
:10547000EEEFFAE0D5CF808191818737974709F029
:105480005ECEA895809160008861809360008091D5
:10549000CB0280936000EE3F2AE0F20789F0809112
:1054A000FE0A9091FF0A9183808349CE8081918189
:1054B0008737980751F29093FF0A8093FE0AC5CF71
:1054C0001092FF0A1092FE0A3ACE0E945F03DC019E
:1054D00012960D911C910115110509F4E8CED80121
:1054E000ED91FC910190F081E02DBE016B5E7F4F4C
:1054F000C8010995811123CEF80100851185EBCFF4
:10550000181619060CF41BCED2CEF1E0FF12BECE57
:1055100063EC72E004CF1F920F920FB60F9211242A
:105520002F933F934F935F936F937F938F939F93AB
:10553000AF93BF93EF93FF938BE393E00E94F50348
:10554000FF91EF91BF91AF919F918F917F916F915B
:105550005F914F913F912F910F900FBE0F901F9031
:1055600018951F920F920FB60F9211242F938F93BD
:105570009F93EF93FF93E0914B03F0914C03808155
:10558000E0915103F091520382FD1BC09081809104
:1055900054038F5F8F7320915503821741F0E09180
:1055A0005403F0E0E55CFC4F958F80935403FF912A
:1055B000EF919F918F912F910F900FBE0F901F90A1
:1055C00018958081F4CF1F920F920FB60F9211247D
:1055D0002F933F938F939F93AF93BF938091B30289
:1055E0009091B402A091B502B091B6023091B2028E
:1055F00023E0230F2D3758F50196A11DB11D2093EF
:10560000B2028093B3029093B402A093B502B09318
:10561000B6028091B7029091B802A091B902B09100
:10562000BA020196A11DB11D8093B7029093B802F2
:10563000A093B902B093BA02BF91AF919F918F919D
:105640003F912F910F900FBE0F901F90189526E855
:10565000230F0296A11DB11DD2CF1F920F920FB63C
:105660000F9211242F933F934F935F936F937F93E8
:105670008F939F93AF93BF93EF93FF938091B90064
:10568000887F803609F44AC0F0F5883209F4A7C053
:1056900018F5803109F49BC0B8F4882309F4F9C0E7
:1056A000883009F494C0FF91EF91BF91AF919F9121
:1056B0008F917F916F915F914F913F912F910F90BB
:1056C0000FBE0F901F901895883109F488C0803262
:1056D00051F78093100314C0803409F49DC040F446
:1056E0008033B9F38833F9F68093100385ECB0C0AA
:1056F000803509F485C0883509F496C0883499F658
:105700000E947907D0CF883909F48CC038F58837E2
:1057100029F050F4883611F0803729F683E0809321
:1057200012031092B10257C0883809F47BC0803947
:1057300019F0803809F0B7CF8091B102803208F0BB
:1057400071C0E091B10281E08E0F8093B10280912F
:10575000BB00F0E0EF56FD4F80833DC0803B39F049
:10576000E0F4803A09F479C0883A09F09CCF84E0EB
:105770008093120310928E0210928D02E0918B02A0
:10578000F0918C02099580918D0281110FC081E00A
:1057900080938D0210926B0209C0803C09F4A6CF61
:1057A000883C09F4A3CF883B09F07DCFE0918E02BD
:1057B00081E08E0F80938E02F0E0E559FD4F8081ED
:1057C0008093BB0090918E0280918D0229C08091C0
:1057D000ED028093BB0085EC8093BC0064CF909178
:1057E0000F0380910E03981758F5E0910F0381E0A5
:1057F0008E0F80930F03F0E0E251FD4F8081E9CFDF
:10580000E0910F0381E08E0F80930F038091BB0026
:10581000F0E0E251FD4F808390910F0380910E03E1
:105820009817C8F285E8D8CFE0910F0381E08E0F7A
:1058300080930F038091BB00F0E0E251FD4F808325
:105840008091110381115CCF81E08093EC0284EAA6
:105850008093BC001092120326CF85EC8093BC008D
:10586000109212038091B102803230F4E091B102C3
:10587000F0E0EF56FD4F10826091B10270E0E091D0
:105880008F02F091900281E992E009951092B102A5
:105890000ACF1092100334CFFC01A385B485109772
:1058A00071F47487638785859685DB0114962D9145
:1058B0003C91820F931F968785870895DC018D9117
:1058C0009C9111970097D1F76D937C93ECCF109238
:1058D0003E0310923D0388EE93E0A0E0B0E0809399
:1058E0003F0390934003A0934103B093420327EA00
:1058F00031E030933C0320933B032DEC30E03093B8
:105900004803209347032CEC30E030934A03209364
:10591000490328EC30E030934C0320934B0329ECEF
:1059200030E030934E0320934D032AEC30E0309367
:10593000500320934F032EEC30E03093520320931A
:105940005103109254031092550310925603109273
:1059500057031092DB031092DA038093DC039093D9
:10596000DD03A093DE03B093DF0329EB31E0309336
:10597000D9032093D8032FEF3FEF3093E503209313
:10598000E40310922B0410922A0480932C04909329
:105990002D04A0932E04B0932F048BEC91E09093F0
:1059A00029048093280410924504109244048DED3C
:1059B00091E0909343048093420480913A048111D2
:1059C00013C0109235041092340485EF92E0909346
:1059D0003704809336048BE390E0909339048093EE
:1059E000380481E080933A040E942B0964E374E058
:1059F0000E944C2C8FEE91E090935D0480935C04A8
:105A000080915404811113C010924F0410924E04DF
:105A100080E393E090935104809350048FE490E0EE
:105A2000909353048093520481E0809354040E9425
:105A30002B096EE474E00E944C2C10927E041092AC
:105A40007D041092800410927F041092810485EFEF
:105A500091E090937C0480937B0480917304811186
:105A600013C010926E0410926D048FE793E0909330
:105A7000700480936F0487E390E0909372048093A6
:105A8000710481E0809373040E942B096DE674E039
:105A90000E944C2CE9E4F5E08FEF10868187128696
:105AA0003B9695E0E038F907C1F7EDE1F5E01282A9
:105AB0001382349685E0E934F807C9F7E6EEF4E09E
:105AC00081E010828483359695E0ED31F907C9F7BE
:105AD000E2E8F4E084E613821482158216821782CB
