:100000000C94DA010C9402020C9402020C94020289
:100010000C9402020C9402020C9402020C94020250
:100020000C9402020C9402020C9496270C9405285E
:100030000C9402020C9402020C9402020C94020230
:100040000C9402020C9402020C9402020C94020220
:100050000C9402020C9402020C9402020C948F2A5B
:100060000C9402020C945D2A0C94372A0C94020220
:100070000C9402020C9402020C9402020C940202F0
:100080000C9402020C9402020C9402020C940202E0
:100090000C94D92A0C9402020C9402020C940202D1
:1000A0000C9402020C9402020C940202084AD73B00
:1000B0003BCE016E84BCBFFDC12F3D6C74319ABD37
:1000C00056833DDA3D00C77F11BED9E4BB4C3E915B
:1000D0006BAAAABE000000803F05A84CCDB2D44E4A
:1000E000B93836A9020C50B9918688083CA6AAAA4C
:1000F0002ABE000000803F00070605040100080A30
:100100000B0C0D09000000000000000000000000C2
:10011000000000002A002B00280000000000000062
:1001200000000000000000000000000000000000CF
:1001300000000000000000000000000000000000BF
:10014000000000002C001E023402200221022202C4
:10015000240234002602270225022E0236002D003A
:100160003700380027001E001F0020002100220059
:1001700023002400250026003302330036022E001F
:10018000370238021F0204020502060207020802B3
:1001900009020A020B020C020D020E020F021002EB
:1001A000110212021302140215021602170218029B
:1001B00019021A021B021C021D022F00310030001E
:1001C00023022D0235000400050006000700080088
:1001D00009000A000B000C000D000E000F001000BB
:1001E000110012001300140015001600170018006B
:1001F00019001A001B001C001D002F0231023002E2
:100200003502000000000000240027002A002D0015
:10021000300000000000250028002B002E003100D7
:10022000040404040403040502020202040302029B
:10023000020206060606060604040202020404047C
:1002400008020110408040102040804080080204D5
:10025000018040201002011080102040402000004A
:10026000000200090F0000030401000C0000000060
:1002700000000000000000000000000000080B006B
:10028000020202000009040000010202000005242D
:1002900000100105240101010424020605240600C2
:1002A000010705810310004009040100020A000053
:1002B0000007050202400000070583024000000419
:1002C00003090412010002EF0201404123478000AC
:1002D000010102030141726475696E6F204C4C4349
:1002E0000047554E344952204D6963726F20503299
:1002F0000005010906A1018502050719E029E71596
:10030000002501750195088102050C9501750815F8
:100310000026FF00190029FF8100050795067508D2
:10032000150026E700190029E78100C0050109042E
:10033000A10185070509190129201500250175016D
:10034000952081020501A1000930093109330934E2
:10035000150026FF7F7510950481020932093515B5
:1003600080257F750895028102C005010939093988
:1003700015012508950275048102C005010902A135
:10038000018506050919012908150025019508753B
:1003900001810205010930093116000026FF7F7531
:1003A000109502810209381581257F750895018114
:1003B00006C0132C11241FBECFEFDAE0DEBFCDBF85
:1003C00012E0A0E0B1E0ECEBFDE602C005900D927A
:1003D000A630B107D9F725E0A6E0B2E001C01D9232
:1003E000A038B207E1F711E0CAEDD1E004C02197CF
:1003F000FE010E94B736C93DD107C9F70E94252DDD
:100400000C94DC360C940000982F2091360381E088
:10041000213208F043C0809112038111FCCF8091FA
:10042000350332E030931203909311039FEF9093C2
:10043000100310920F0320930E03A5E1B3E0EEEE3C
:10044000F2E090E0291331C01092ED029091ED029C
:10045000880F892B8093ED028091EC02813049F561
:100460001092EC028091ED028093BB008091BC0061
:1004700083FDF8CF85EC8093BC008091120382301D
:10048000E1F3809110038F3FB1F08091100380322F
:10049000A1F080911003803391F084E01092140356
:1004A000109236031092130308953D9131939F5F8C
:1004B000C9CF85EEE0CF80E0F1CF82E0EFCF83E0DF
:1004C000EDCFFC018091EB02882311F13FB7F89446
:1004D00082E08093E9002091F200822F90E01816CC
:1004E000190614F481E090E0882339F0289A44E654
:1004F0004093EA024091F1004083222339F0209199
:10050000F200211103C02BE62093E8003FBF0895BD
:100510008FEF9FEF08954091C9025091CA02209138
:10052000C7023091C80242175307B4F49091E80013
:100530009570E1F39091E80092FD19C08093F1006D
:100540008091C9029091CA0201968F739927892BD5
:1005500019F48EEF8093E8008091C9029091CA024D
:1005600001969093CA028093C90281E0089580E0C9
:100570000895EF92FF920F931F93CF93DF93F82E7E
:10058000192FE62E042F81E0860F880F0E948B0220
:1005900083E00E948B02CF2DD12FEC0EFD2EF11C9B
:1005A000CE15DF05B9F007FF13C0FE0184910E944C
:1005B0008B02182F80E00E948B02812321968111EB
:1005C000EFCFDF91CF911F910F91FF90EF900895A2
:1005D0008881EDCF81E0F5CFDF92EF92FF920F930C
:1005E0001F93CF93DF93D82E8A01EB017B01E40E9A
:1005F000F51ECE15DF0559F0D7FE12C0FE0184911D
:100600000E948B0221968111F4CF0FEF1FEFC801DA
:10061000DF91CF911F910F91FF90EF90DF900895A0
:100620008881EECF2FB7F89487708093E90090917E
:10063000E800892F807295FF04C09091F20080E459
:10064000891B2FBF0895615030F02091F100FC010B
:1006500020830196F8CF289A84E68093EA020895D1
:10066000AF92BF92CF92DF92EF92FF920F931F93C0
:10067000CF93DF936C017B018B01040F151FEB01FE
:100680005E01AE18BF08C017D10759F06991D601B5
:10069000ED91FC910190F081E02DC6010995892B27
:1006A00079F7C501DF91CF911F910F91FF90EF90E6
:1006B000DF90CF90BF90AF9008958091BF028111DD
:1006C0000DC082E08093BB0284E08093BC02109254
:1006D000BE021092BD0281E08093BF028BEB92E0DC
:1006E00008950F931F93CF93DF931F92CDB7DEB77B
:1006F00082E0898342E450E06DE772E080E80E9486
:10070000EC020E945D03DC0112960D911C91011513
:10071000110589F0D801ED91FC910280F381E02D63
:10072000BE016F5F7F4FC801099597FD04C0F801B6
:1007300000851185ECCF89810F90DF91CF911F91BA
:100740000F910895FC01538D448D252F30E0842FA7
:1007500090E0821B930B541710F0CF9608950197E9
:100760000895FC01918D828D981761F0A28DAE0FD6
:10077000BF2FB11D5D968C91928D9F5F9F73928F5D
:1007800090E008958FEF9FEF0895FC01918D828D89
:10079000981731F0828DE80FF11D858D90E0089556
:1007A0008FEF9FEF0895FC01918D228D892F90E0AE
:1007B000805C9F4F821B91098F73992708958BE36B
:1007C00093E00E94D30321E0892B09F420E0822FDB
:1007D000089580E090E0892B29F00E94DF038111C9
:1007E0000C9400000895FC01A48DA80FB92FB11D31
:1007F000A35ABF4F2C91848D90E001968F73992757
:10080000848FA689B7892C93A089B1898C91827431
:100810008C93938D848D981306C00288F389E02D04
:1008200080818F7D80830895EF92FF920F931F93B5
:10083000CF93DF93EC0181E0888F9B8D8C8D981393
:1008400019C0E889F989808185FF14C09FB7F894A1
:10085000EE89FF896083E889F989808182748083C9
:100860009FBF81E090E0DF91CF911F910F91FF90AA
:10087000EF900895F62E0B8D10E00F5F1F4F0F7352
:100880001127E02E8C8D8E110CC00FB607FCFACF0D
:10089000E889F989808185FFF5CFCE010E94F303B5
:1008A000F1CFEB8DEC0FFD2FF11DE35AFF4FF082DE
:1008B0009FB7F8940B8FEA89FB8980818062CFCF44
:1008C000682F8BE393E00C941404CF93DF93EC0137
:1008D000888D8823B9F0AA89BB89E889F9898C9128
:1008E00085FD03C0808186FD0DC00FB607FCF7CFE4
:1008F0008C9185FFF2CF808185FFEDCFCE010E94E4
:10090000F303E9CFDF91CF910895CF93DF931F9247
:10091000CDB7DEB76983DC01ED91FC910280F381F4
:10092000E02D41E050E0BE016F5F7F4F09950F90D1
:10093000DF91CF91089583E08093E9008091F200E8
:10094000882319F08AE38093E800089583E00E94E9
:10095000120390E00895CF93DF931F92CDB7DEB7D7
:10096000FC018485958597FD08C02FEF3FEF358703
:1009700024870F90DF91CF910895CE0101960E94B8
:100980006102019719F4898190E0F3CF8FEF9FEF17
:10099000F0CF0F931F93CF93DF931F92CDB7DEB7A6
:1009A0008C01FC018485958597FF0BC0CE010196D3
:1009B0000E946102019771F4898190E0F8019587A6
:1009C0008487F801848595850F90DF91CF911F91E1
:1009D0000F9108958FEF9FEFF1CFFC0184859585EE
:1009E00097FD0BC09FB7F89482E08093E900809157
:1009F000F2009FBF90E0019608959FB7F89482E0BF
:100A00008093E9008091F2009FBF90E00895282F25
:100A100030E0F901E25AFD4F9491F901E15CFD4F9C
:100A20008491205E3D4FF9012491222309F430C0C6
:100A30009923E9F091509F30D0F4E92FF0E0ED5D7B
:100A4000FA4F0C94B73651055505320549054D0549
:100A500037053705370558055E05620566056C05DF
:100A600037057005909180009F7790938000E22F6A
:100A7000F0E0EE0FFF1FEE5EFD4FA591B4919FB722
:100A8000F894EC91611132C080958E238C939FBFB6
:100A90000895909180009F7DE8CF90918000977F8E
:100AA000E4CF94B59F7794BDE2CF94B59F7DFBCF03
:100AB000909190009F7790939000D9CF9091900063
:100AC0009F7DF9CF90919000977FF5CF9091C000D6
:100AD0009F779093C000CBCF9091C0009F7DF9CFBE
:100AE0009091C200977F9093C200C1CF8E2BCECF42
:100AF000CF93DF9390E0FC01E15CFD4F2491805E99
:100B00009D4FFC0184918823D1F090E0880F991FBC
:100B1000FC01EC5FFD4FA591B491FC01EE5EFD4F31
:100B2000C591D49161110EC09FB7F8948C91E22FBA
:100B3000E0958E238C932881E223E8839FBFDF9189
:100B4000CF9108958FB7F894EC91E22BEC938FBF7F
:100B5000F6CF3FB7F8948091B7029091B802A09178
:100B6000B902B091BA0226B5A89B05C02F3F19F073
:100B70000196A11DB11D3FBFBA2FA92F982F88271D
:100B8000BC01CD01620F711D811D911D42E0660FF8
:100B9000771F881F991F4A95D1F708958F929F92CA
:100BA000AF92BF92CF92DF92EF92FF924B015C0126
:100BB0000E94A9056B017C010E94A9056C197D09A1
:100BC0008E099F09683E734081059105A8F321E0D5
:100BD000821A9108A108B10888EEC80E83E0D81ED9
:100BE000E11CF11C81149104A104B10429F7FF90C8
:100BF000EF90DF90CF90BF90AF909F908F9008952F
:100C00007F928F929F92AF92BF92CF92DF92EF929C
:100C1000FF920F931F93CF93DF93C82E8B017A011E
:100C20008091EB02811110C08FEF9FEFDF91CF9188
:100C30001F910F91FF90EF90DF90CF90BF90AF90FA
:100C40009F908F907F9008958091CD0280FF05C086
:100C50008091E00082608093E000CE2DDF2DD12CCA
:100C60008AEFB82E8C2D8770982E8C2D8072882E4E
:100C70008C2D8074782E9AE3A92E209719F4DD200C
:100C800009F452C08C2D0E94120381110AC0BA943B
:100C9000BB2051F261E070E080E090E00E94CE0560
:100CA000ECCF8C171D0611F00CF08C2F9FB7F89429
:100CB0009092E9002091E80025FD02C09FBFDDCFA2
:100CC000282F30E0C21BD30B882029F08150A0F0E0
:100CD0001092F100FBCFF801C7FC0AC0815050F020
:100CE00041914093F100FACF44914093F100319645
:100CF0008150D0F7020F131FDD2021F0A092E800F1
:100D0000D12CDCCF8091E80085FD07C0A092E800DF
:100D1000DD24D394209791F2F3CF209779F67720B2
:100D200069F2A092E800CACF5D9A84E68093CC0273
:100D3000C7017CCFCF93DF93EC0180911E01882304
:100D400031F083E00E9400061816190634F081E0A5
:100D500090E09B838A8380E090E0DF91CF910895BB
:100D60002FB7F8946091B3027091B4028091B502EC
:100D70009091B6022FBF08950F931F930E94B00663
:100D80006093E0037093E1038093E2039093E303A5
:100D900088ED93E00E94C90497FF1DC00E94B00631
:100DA0000091E0031091E1032091E2033091E3030D
:100DB000601B710B820B930B0091DC031091DD0320
:100DC0002091DE033091DF036017710782079307DC
:100DD000F8F28FEF9FEF1F910F910895CF92DF925E
:100DE000EF92FF92CF930E94BC06FC0197FD4EC08C
:100DF0008D32910521F0C0970A9708F040C0C12CB0
:100E0000D12C7601C0E0E130F105D1F0ED32F105F1
:100E1000D9F1CF01C0970A9798F4AAE0B0E0A701F2
:100E200096010E94F4336F01FF0FEE08FF08C60E13
:100E3000D71EE81EF91E80E3C81AD108E108F108A0
:100E400088ED93E00E94AB040E94BC06FC01C097B1
:100E50000A97C8F2E130F105B1F2CC2341F0F094E9
:100E6000E094D094C094C11CD11CE11CF11CC701BA
:100E7000B601CF91FF90EF90DF90CF90089588ED6D
:100E800093E00E94AB04AFCFC1E0DACFC12CD12CEC
:100E90007601EDCF85ED8093BC008091BC0084FD90
:100EA000FCCF10921203089520918D02260F332754
:100EB000331F21323105ECF420911203FC0190E044
:100EC00080E0243069F082E00895A0918D022191A4
:100ED000AC0145595D4FA40FB52FB11D2C93019660
:100EE000861798F380918D02680F60938D0280E0E1
:100EF000089581E00895089508950895E0916A02A3
:100F000080916902E81730F4F0E0E75BFD4F8081E3
:100F100090E008958FEF9FEF089590916A0280917D
:100F200069022FEF3FEF981748F4E92FF0E0E75BF5
:100F3000FD4F208130E09F5F90936A02C9010895C0
:100F40008091690290916A02891B990B0895CF9252
:100F5000DF92EF92FF920F931F93CF93DF937C0169
:100F6000CB018A0120911303222389F0EB016B014D
:100F7000C40ED51ECC15DD0569F06991D701ED9140
:100F8000FC910190F081E02DC7010995F3CF642F0A
:100F90000E945407C801DF91CF911F910F91FF90DC
:100FA000EF90DF90CF900895CF93DF931F92CDB74E
:100FB000DEB76983209113032223F9F020913603D1
:100FC000203258F021E030E0FC013383228390E0AE
:100FD00080E00F90DF91CF91089580911403E82F66
:100FE000F0E0EB5EFC4F998190838F5F8093140358
:100FF0008093360381E090E0ECCF61E0CE01019672
:101000000E945407F7CFDC01FB0112962C91129736
:10101000848195812817190641F491818081813A54
:1010200031F49D7F81E0913009F080E008958132B4
:10103000E1F79B3029F482811F968C9381E008951B
:101040009A3099F7828150968C93F8CFAF92BF92E5
:10105000CF92DF92EF92FF920F931F93CF93DF9384
:101060001F92CDB7DEB77C0169836A01590141E067
:1010700050E0BE016F5F7F4FFC0183810E9400063C
:101080008C0197FD0BC0F7018381A501B601806437
:101090000E940006080F191F97FD8C01C8010F90D0
:1010A000DF91CF911F910F91FF90EF90DF90CF9044
:1010B000BF90AF900895DC01FB0188E4808389E450
:1010C000818384E482831D969C911D979F709F5B12
:1010D00093831D968D919C9124E0969587952A95F2
:1010E000E1F78F708F5B848385E00895EF92FF9224
:1010F0000F931F93CF93DF93FB012081213871F56C
:101100002381223259F5DC0112964C9124813581DC
:101110004217130619F5EC010B851C85F12CE12C07
:101120000115110589F0F8014481558162817381AF
:1011300080E80E94EC028F3F980749F0E80EF91E04
:10114000D8010D911C91ECCF81E08F87C701DF9111
:10115000CF911F910F91FF90EF90089590E080E064
:10116000F6CFCF93DF93CDB7DEB769970FB6F8947C
:10117000DEBF0FBECDBFFC01DB018C918F5F8C9376
:101180009E012D5F3F4F8DE0D9011D928A95E9F7B1
:1011900029E0298384E08A8391E09D8383E08E8324
:1011A0002A8721E22B879C879D879F8722E2288BB5
:1011B00027E02B8B25E02C8B8E8B20E430E0388FC2
:1011C0002F8B998F82818B8395858685998B8A8BCE
:1011D000838180688D8B49E150E0BE016F5F7F4F56
:1011E00080E00E94EC0269960FB6F894DEBF0FBE55
:1011F000CDBFDF91CF910895CF93DF9380914102CE
:10120000811167C081E080933402809335022AE324
:1012100032E0309337022093360210923902109256
:1012200038022AE931E030933102209330021092E3
:101230003C0210923B0210923E0210923D028093BB
:101240003F028093400281EC80933A020E945D034A
:10125000FC01818190913402482F490F5527551F79
:10126000483051059CF5A281B381109709F520E320
:1012700032E0338322832081209332028093330231
:1012800080913502820F808320913602A22FB09187
:1012900037028A2F821B8917C8F481813D91C82F9C
:1012A000D0E0C45FDE4F38838F5F8183F2CFD901F6
:1012B00018962D913C91199721153105C1F720E31E
:1012C00032E019963C932E931897D5CF81E0809306
:1012D000410280E392E0DF91CF910895CF93DF93B5
:1012E000EC010E94FC08AE014C5F5F4F28E030E04B
:1012F00062E0DF91CF910C942608CF92DF92FF92AB
:101300000F931F93CF93DF9367FF10C021E030E06E
:10131000FC013383228310E000E0C801DF91CF910C
:101320001F910F91FF90DF90CF900895F42EEC0164
:10133000E62FF0E0EE0FFF1FEC5FFE4FC590D4905C
:10134000E881F9810484F585E02D6C2DCE010995A5
:101350008C01892B11F4F110E0CFD0FE0BC0E88195
:10136000F9810484F585E02D4F2D60EECE010995BD
:10137000082B192BD1FE0BC0E881F9810484F58577
:10138000E02D4F2D61EECE010995082B192BD2FED1
:101390000BC0E881F9810484F585E02D4F2D62EEC4
:1013A000CE010995082B192BD3FE0BC0E881F981DA
:1013B0000484F585E02D4F2D63EECE010995082BB1
:1013C000192BD4FE0BC0E881F9810484F585E02D4A
:1013D0004F2D64EECE010995082B192BD5FE0BC0BD
:1013E000E881F9810484F585E02D4F2D65EECE016D
:1013F0000995082B192BD6FE0BC0E881F9810484CE
:10140000F585E02D4F2D66EECE010995082B192BA1
:10141000D7FE83CFE881F9810484F585E02D4F2D37
:1014200067EECE010995082B192B77CFFF920F930A
:101430001F93CF93DF93EC01F62E41E00E947D09CC
:101440008C01892BA9F0E881F9810284F385E02DD4
:10145000CE01099540E06F2DCE010E947D09892BB8
:1014600039F0E881F9810284F385E02DCE010995F8
:10147000C801DF91CF911F910F91FF9008950895BA
:1014800090E080E008950F931F93CF93DF93EB01DB
:101490008A010E94FC089801AE0167E0DF91CF91BC
:1014A0001F910F910C9426080F931F93CF93DF93F6
:1014B000EB018A010E94FC089801AE0166E0DF9111
:1014C000CF911F910F910C942608CF93DF9300D0FA
:1014D00000D000D0CDB7DEB7EBE7F4E09383828392
:1014E00075836483268129839B838A837D836C83B0
:1014F0001E8246E050E0BE016F5F7F4FCF010E9429
:10150000540A26960FB6F894DEBF0FBECDBFDF910A
:10151000CF910895FC01408372836183942F90954D
:10152000DB0111968C911197892311968C93A181DF
:10153000B28112968C911297482B12964C9323836A
:101540000895CF93C42F91E09093130380933503B4
:10155000109214031092360388E294E00E94D4079C
:101560006C2F88E294E00E94D40781E00E9404027C
:101570006CE370E080E090E0CF910C94CE058F9208
:101580009F92AF92BF92CF92DF92EF92FF92E8EFDD
:10159000F0E0E49190917B008E2F880F880F80728D
:1015A0009F7D892B80937B00E770E064E0937C0053
:1015B00080917A00806480937A0080917A0086FD21
:1015C000FCCF8091780060917900762F682F072EEC
:1015D000000C880B990B0E94A23223E030E040EA15
:1015E0005BE30E94013320E030E040E05FE30E94D3
:1015F000383420E030E048EC52E40E9401336B01C3
:101600007C0180900A01912CB12CA12C0E948E3576
:101610009B01AC01281939094A095B09ADE9BFEF03
:101620000E94023420910B0130E050E040E0281984
:1016300039094A095B090E94D5332D398FEF3807E4
:10164000480758079CF0121613061406150684F076
:101650002C5920939404C701B601FF90EF90DF90BE
:10166000CF90BF90AF909F908F90089521E0F1CFE1
:1016700024E6EFCFCF92DF92EF92FF92CF93DF93EA
:101680007C01EB01660F771F880F991F20913B01AA
:10169000222399F19093630480936204709365040C
:1016A000609364042EEF30E0D7010E94C536CC244D
:1016B000CA942FE3D22EE12CF12CA70196010E94AF
:1016C000D5332F573109410951092093DB022EEF01
:1016D00030E0DE010E94C536A70196010E94D53395
:1016E0002F573109410951092093DC02DF91CF9135
:1016F000FF90EF90DF90CF9008950E94650AD2CFBF
:101700000F931F9380914401882309F445C00E94E0
:10171000B00600912A0210912B0220912C023091E8
:101720002D02601B710B820B930B6B3071058105D1
:10173000910590F18DEF90E00E94600486E090E0CA
:101740000E9460046091DB028BE393E00E9414042A
:101750006091DC028BE393E00E94140481E090E04E
:101760000E94600481E090E00E9460046091DD02CC
:101770008BE393E00E9414046091DE028BE393E01C
:101780000E9414040E94B00660932A0270932B02F8
:1017900080932C0290932D021F910F9108951F9317
:1017A000CF93DF9341E060E388E50E94A10A48E01F
:1017B00060E388E50E94A10AD0E0C0E017E08091D4
:1017C0004201FE01189FE00DF11D1124EC5AFE4F5D
:1017D0004081442339F0FE01E35BFE4F608188E5E0
:1017E0000E94A10A2196C730D10549F743E363E37C
:1017F00088E50E94A10A48E060E388E5DF91CF9187
:101800001F910C94A10A8F929F92AF92BF92CF9298
:10181000DF92EF92FF921F93CF93DF93FC01208919
:10182000222309F472C0F42EE62EEC01662309F49B
:1018300044C0442309F441C00E94B0066C837D83F8
:101840008E839F83188189816E2D882341F16B8956
:1018500070E090E080E00E94A23220E030E048ECAE
:1018600052E40E941C354B015C01EF9CB001112435
:10187000072E000C880B990B0E94A2329B01AC0131
:10188000C501B4010E9401330E948E356B01EB014A
:1018900061E0812F0E947805209789F460E0812F14
:1018A000DF91CF911F91FF90EF90DF90CF90BF908D
:1018B000AF909F908F900C9407051B82C3CFCF3FB2
:1018C000D10511F461E0EBCFE12FF0E0E25AFD4FDA
:1018D000E491E150EF3008F087C0F0E0EE58F34FAC
:1018E0000C94B736810C910C960CA00CAA0CF40C3D
:1018F000F40CF40CB40CBE0CC80CD20CDF0CF40CC1
:10190000E70C84B5806884BDC7BCDF91CF911F917F
:10191000FF90EF90DF90CF90BF90AF909F908F900F
:10192000089584B5806284BDC8BCEFCF80918000EB
:10193000806880938000D0928900C0928800E5CFB3
:1019400080918000806280938000D0928B00C09252
:101950008A00DBCF80918000886080938000D092E5
:101960008D00C0928C00D1CF8091900080688093D0
:101970009000D0929900C0929800C7CF80919000BB
:10198000806280939000D0929B00C0929A00BDCF5D
:1019900080919000886080939000D0929D00C092CA
:1019A0009C00B3CF8091C00080688093C00080917C
:1019B000C0008F7B8093C000C092CF00A6CF8091E3
:1019C000C00080628093C000C092D0009ECF809102
:1019D000C20088608093C2008091C2008B7F809398
:1019E000C200C092D20091CFC038D1050CF06ACFAE
:1019F00055CF8F929F92AF92BF92CF92DF92EF928C
:101A0000FF921F93CF93DF93EC018A81680F6A8363
:101A1000842F90E09F878E878889882309F44EC0A1
:101A20008B8181114BC0142F0E94B006CC80DD80C9
:101A3000EE80FF806C197D098E099F090E94A032FB
:101A40006B017C016C857D8590E080E00E94A03276
:101A50004B015C016A8970E090E080E00E94A23254
:101A600020E030E048EC52E40E941C359B01AC01C0
:101A7000C501B4010E941C354B015C016A857B8560
:101A800090E080E00E94A0329B01AC01C501B4014E
:101A90000E9439349B01AC01C701B6010E942A366D
:101AA00087FD0CC0412F61E0CE010E94030C81E054
:101AB0008B838A81882311F081508A83DF91CF91B3
:101AC0001F91FF90EF90DF90CF90BF90AF909F90CD
:101AD0008F90089590912F02992391F0282F30E054
:101AE0002E5F3F4F54E1529FC001539F900D112430
:101AF0008E579B4FFC012189211102C00C94F90CD7
:101B000008951F93CF93DF93C82F142FD22F462F02
:101B1000682F80E00E946A0D412F6C2F81E00E94A7
:101B20006A0D4D2F6C2F82E0DF91CF911F910C94A5
:101B30006A0D2FEF4FEF6FEF0C94810D623049F07B
:101B4000633059F0613061F420E040E06FEF0C94B5
:101B5000810D20E04FEF60E0FACF2FEF40E0FBCFA8
:101B6000862F0C94990D0F931F93CF93DF93809141
:101B70002E02882311F180913901882309F449C08C
:101B800080913C01882309F444C04FEF60E080E07D
:101B90000E946A0DE1E0F0E0E95CFE4F808194E193
:101BA000989FF0011124EE57FB4F2189211105C0A8
:101BB0004FEF60E0CF010E94F90CC2E8D4E08889C1
:101BC0008823E9F08B81882361F10E94B0060C81A3
:101BD0001D812E813F81AB01BC01401B510B620B6B
:101BE000730B8A859B85B0E0A0E0481759076A0708
:101BF0007B0728F04FEF60E0CE010E94030C649653
:101C000084E0C63ED807D9F6DF91CF911F910F919E
:101C100008952FEF4FEF6FEF80E00E94810DE0E01D
:101C2000BACF8A81882359F34E8560E0CE010E94A5
:101C3000F90CE5CFCF92EF920F931F93CF93DF93E1
:101C4000EC016883488B3B872A871D870C87E982D4
:101C5000CB8A442379F0862F61E00E9478054FEF0C
:101C600060E0CE01DF91CF911F910F91EF90CF9067
:101C70000C94030CDF91CF911F910F91EF90CF90B7
:101C80000895EF92FF921F93CF93DF937C0191E031
:101C900050E0440F551F3BE0961738F5292FE70118
:101CA000C90FD11D97FDDA951216ECF47A911981BE
:101CB0007303D0011124A40FB51FA75BBA4F130300
:101CC000F0011124E40FF51FE75BFA4F0D90BC9172
:101CD000A02D0190F081E02DEA17FB0724F4188372
:101CE00079832150E1CF9F5FD7CFDF91CF911F91B3
:101CF000FF90EF9008958F929F92AF92BF92CF92F4
:101D0000DF92EF92FF920F931F93CF93DF93EC013B
:101D10008090060290900702A0900802B0900902FD
:101D200020E030E040EA51E4C501B4010E943834BB
:101D30000E948E356B0120E030E040EA51E4C5019D
:101D4000B4010E9439340E948E35AB01CC16DD06F9
:101D50001CF4C617D707ACF184EB90E09C01241B60
:101D6000350B2C173D072CF48C199D09C817D90782
:101D70005CF1C6018C549F4F8C179D0734F4CA0147
:101D80008D549F4F8C179D0714F588E691E09C01B8
:101D9000241B350B2C173D07ECF48C199D09C81733
:101DA000D907C4F48BE391E0DF91CF911F910F919C
:101DB000FF90EF90DF90CF90BF90AF909F908F906B
:101DC00008958DE290E0F0CF87E890E0EDCF81EECE
:101DD00090E0EACF8FEF9FEFE7CFCF92DF92EF92C5
:101DE000FF926B017C0128EB3EEF43EB53E40E9432
:101DF0002A3618164CF420E030E044EB53E4C701D7
:101E0000B6010E943834EDCF20E030E0A901C701CF
:101E1000B6010E949B3287FF0BC020E030E044EB0C
:101E200053E4C701B6010E9439346B017C01ECCF49
:101E3000C701B601FF90EF90DF90CF9008958430F6
:101E40002CF493E0981B9C7F890F08958450F7CF62
:101E5000FC019C01285F3F4F90E080E044814111EC
:101E6000019614823196E217F307C1F70895CF93D4
:101E7000DF93DC0190E2960F9830B0F414968C91C9
:101E8000149721E030E001C0220F9A95EAF744232D
:101E900041F0282B14962C9381E090E0DF91CF91B4
:101EA000089520952823F6CFFD0136964423D1F0DE
:101EB000CD010C96EF012991621771F3C817D9076C
:101EC000D1F790E080E02191211105C0A80FB91F42
:101ED00016966C93E1CF019686309105A1F790E0BC
:101EE00080E0DCCF90E080E02191621305C0A80F74
:101EF000B91F16961C92D0CF019686309105A1F796
:101F0000EECFFC0101900020E9F73197AF01481BAB
:101F1000590BBC0188ED93E00C949A068F929F9226
:101F2000AF92BF920F931F93CF93DF93CDB7DEB7DE
:101F3000A1970FB6F894DEBF0FBECDBF19A24230F5
:101F400008F44AE08E010F5D1F4F842E912CB12CB6
:101F5000A12CA50194010E940734E62FB901CA0102
:101F6000EA30F4F4E05DD801EE938D01232B242BAD
:101F7000252B79F790E080E0109719F0CD010E94B1
:101F8000810FA1960FB6F894DEBF0FBECDBFDF91D3
:101F9000CF911F910F91BF90AF909F908F90089518
:101FA000E95CE1CFCF92DF92EF92FF92CF93DF9384
:101FB0006B017C016DE288ED93E00E948504EC01E9
:101FC00066277727CB016C197D098E099F094AE0A6
:101FD0000E948E0F8C0F9D1FDF91CF91FF90EF908D
:101FE000DF90CF900895EF92FF920F931F93CF93BE
:101FF000DF93909112039111FCCF91E09093120323
:10200000909311032FEF2093100310920F03240FCE
:1020100020930E039093ED029091ED02880F892B8F
:102020008093ED028091EC02813009F03FC0109264
:10203000EC028091ED028093BB008091BC0083FD97
:10204000F8CF85EC8093BC00809112038130E1F3DE
:1020500080910F03942F841710F490910F03AEEE2C
:10206000B2E0E9E4F2E080E0891322C010926A0253
:1020700080936902C42FD0E08C171D06E9F48B0110
:102080007B0188E294E00E948D07F70181937F0134
:10209000CF01801B910B8C179D079CF381E0DF9192
:1020A000CF911F910F91FF90EF90089585EECACFC9
:1020B0002D9121938F5FD8CF80E0F1CF2F923F9267
:1020C0004F925F926F927F928F929F92AF92BF9248
:1020D000CF92DF92EF92FF920F931F93CF93DF93F4
:1020E000CDB7DEB763970FB6F894DEBF0FBECDBF96
:1020F00006EE14E091EEC92E92E0D92E22E2E22EF5
:1021000022E0F22EE3E3F1E0312CD80111968D911B
:102110009C91DC012C90D8018C912822C801059655
:102120004C01D6011196BE87AD87C7010496988BE6
:102130008F87DF011296BA8BA98BB1E0B31508F433
:1021400037C1D601BC91BB8BD7014D905D906D908E
:102150007C90A080B180A114B10459F5F80184816C
:102160008211BDC0A114B10479F121102DC00E94CB
:10217000B006AB01BC014419550966097709C501D0
:10218000B0E0A0E084179507A607B707E8F43B89FD
:1021900031111AC01092E402E1E0D601EC933E1234
:1021A00013C080914301882309F432C130922E027A
:1021B0000BC00E94B00664197509860997096B3037
:1021C00071058105910550F633948401CD84DE8438
:1021D000EF84F888E989FA893BE0331296CF46E02C
:1021E000BE01695F7F4F82E50E94F30F882309F4E7
:1021F0005DC08C85982F909591709983869581709C
:1022000091E089278A838F818F57990B28852058E1
:10221000330B41E02F3131050CF440E04B8341E0BA
:102220008F3191050CF440E04C8341E0223E3F4F5A
:102230000CF040E04D8321E0823E9F4F0CF020E007
:102240002E83AE014F5F5F4FABE1B2E080E032E042
:10225000823008F035E0380FFA012191AF019D91ED
:10226000291779F094E0399FF0011124E35EFA4FC9
:102270009381222309F4CAC09F5F9383FD013197A4
:1022800020838F5F863019F781E08093130382E506
:1022900080933503109214031092360360E088E2B5
:1022A00094E00E94D40781E00E94040263960FB676
:1022B000F894DEBF0FBECDBFDF91CF911F910F917C
:1022C000FF90EF90DF90CF90BF90AF909F908F9056
:1022D0007F906F905F904F903F902F900895248251
:1022E000211050C00E94B006F70160837183828381
:1022F0009383F1E03F1239C08091E002811135C033
:1023000090914001992329F0809121028F5F809361
:102310002102F0903C01FF2021F0809139018111D0
:1023200006C09923A1F080912102863080F0E1E07F
:10233000FE1264C06FEF7FE390E080E00E943A0BF2
:10234000F092E40210922102F1E0F09337018091C3
:102350004101882319F031E0309337018091430126
:10236000823019F451E050932E02D8011396EC916B
:10237000B4E0EB02F0011124E35EFA4F83818F5F3A
:10238000838322CFB3800E94B006F70160837183FC
:1023900082839383F1E03F1208C01092E40210920E
:1023A0002E02F801338210923701D6011C920EC022
:1023B000D80114968C911497821509F405CF1496C0
:1023C0002C921497222071F01396BC90B4E0BB9E1F
:1023D000F0011124E35EFA4F8381882309F4F4CEDF
:1023E0008150CECFB4E03B12C0CF80913D01882315
:1023F00051F0809108018093FD04B7CFE2E0D8014D
:102400001396EC939FCF80910901F5CF915035CF72
:102410008401CD84DE84EF84F888E989FA8982E03A
:10242000382E73CEBC01990F880B990B97FF07C00C
:102430000E94D20F6CE288ED93E00C9485044AE090
:102440000E948E0FF7CF0F931F93CF93DF93D82F58
:10245000C62F082F10E0F801E457FE4F8081861741
:1024600030F1D11118C0662321F182E494E00E947A
:10247000280F892B21F082E494E00E946E091092CB
:10248000810460917F047091800480917D0490911B
:102490007E040E94650AF801E55CFE4FC083D730D8
:1024A00089F4DF91CF911F910F910C94CF0BD11133
:1024B00007C0EEE5F4E08FE0DF011D928A95E9F7B1
:1024C000C0E0E9CFDF91CF911F910F9108951F9345
:1024D000CF93DF93182FC82FD0E0C55CDE4F688103
:1024E0006F5F0E942312C881CF5F4FEF6C2F86E988
:1024F00094E00E94F90C612F8C2FDF91CF911F91F6
:102500000C949E0DCF92DF92EF92FF92FB01E21BA3
:10251000F30BDC01A41BB50B9D010E94BD366B01C2
:102520007C019F01DF010E94BD366C0D7D1D8E1D5B
:102530009F1D0E94A2320E9445360E948E35CB011B
:10254000FF90EF90DF90CF900895FF920F931F932D
:10255000CF93DF93EC018B01FB01F0800E94BF332E
:10256000F81621F06F2DCE010E94C733F801F180DB
:102570002196CE010E94BF33F81621F06F2DCE01B7
:102580000E94C733C801DF91CF911F910F91FF9037
:102590000895EF92FF920F931F93CF93DF9300D094
:1025A000CDB7DEB77B01082F10E0000F111FC80167
:1025B0000E94BF338983C80101960E94BF338A837A
:1025C00089819A818F3F980709F07C01C7010F909C
:1025D0000F90DF91CF911F910F91FF90EF90089591
:1025E000FF920F931F93CF93DF93062F182F110F96
:1025F000180FC82FD0E0642F70E085E3810F0E9490
:10260000C912F82E602F70E083E3810F0E94C91277
:10261000FE01EE0FFF1FEE0FFF1FE35EFA4FF08289
:102620008183DF91CF911F910F91FF900895CF92F9
:10263000DF92EF92FF920F931F93CF93DF938B0163
:10264000E901BA01681B790B072E000C880B990B66
:102650000E94A2326B017C01BE01601B710B072E30
:10266000000C880B990B0E94A232A7019601DF9102
:10267000CF911F910F91FF90EF90DF90CF900C942E
:10268000B8342F923F924F925F926F927F928F92C7
:102690009F92AF92BF92CF92DF92EF92FF920F93F1
:1026A0001F93CF93DF9300D000D000D01F92CDB7FF
:1026B000DEB7E82F082E000CFF0BDF01AB5BBE4F2F
:1026C0006D019C919F3F09F0DDC0E62E062E000CA7
:1026D000FF08EBE0EE9DD001EF9DB00D1124A75B4C
:1026E000BA4F19969C919F3F09F0CCC0890169832C
:1026F000382EA42E042E000CBB086E02D00111242B
:10270000A75BBA4F4E02F0011124E75BFA4F22811A
:1027100033814081518112966D917C9113978D91F7
:102720009C910E94171320EE3EE245E652E40E947F
:1027300001332B013C0120E030E0A9010E949B32D3
:1027400087FF0AC020E030E044EB53E4C301B2014C
:102750000E9439342B013C0120913703309138031A
:102760004091390350913A03C301B2010E943834B9
:102770000E94ED0E0E948E35CB010E947B0EBC01A3
:10278000990F880B990B0E94A2322B013C01F32D6B
:102790002AE5F202F0011124E957FF4FFF83EE838F
:1027A00022242394230C34E0330D3B832BE02A9D19
:1027B000C0012B9D900D1124DC01AE5ABA4FBD8390
:1027C000AC83EE81FF81BF01FF0F880B990B0E9444
:1027D000A2320E94ED0E4B015C01822D0E941F0F60
:1027E0008A83C501B4010E948E35072E000C880B28
:1027F000990B0E94A2329B01AC01C301B2010E945D
:102800009B32811136C0AC81BD818C918F3F39F0F4
:10281000082E000C990BBA81B817190651F58BE0F8
:102820008E9DF0018F9DF00D1124E75BFA4F3186EC
:102830002981F6012083D8018C918F5F8C9381E0F0
:1028400027960FB6F894DEBF0FBECDBFDF91CF91B4
:102850001F910F91FF90EF90DF90CF90BF90AF90BE
:102860009F908F907F906F905F904F903F902F90B0
:102870000895EE81FF81BD96FF83EE832394FB8153
:102880002F129FCF80E0DCCF8F929F92AF92BF92AA
:10289000CF92DF92EF92FF920F931F93CF93DF932C
:1028A00000D0CDB7DEB781E080932F0281E090E0C9
:1028B0009A838983BE016F5F7F4F80E190E00E9421
:1028C000A51260E082E10E9478052FECE22E22E062
:1028D000F22E10E070E060E0812F0E94C912F70133
:1028E000819391937F011F5F1630A1F760E170E043
:1028F00086E00E94C9126C0169E070E087E00E94E6
:10290000C9127C01B601DD0C880B990B0E94A23222
:102910004B015C01B701FF0C880B990B0E94A2329E
:102920009B01AC01C501B4010E941C356B017C0107
:10293000C0922701D0922801E0922901F0922A0149
:10294000609135017091360189E00E94C91290931F
:10295000360180933501A701960160E070E080E8C0
:102960009FE30E94B83420EE3EE245E652E40E9426
:1029700001336B017C0120E030E0A9010E949B3211
:1029800087FF0AC020E030E044EB53E4C701B60102
:102990000E9439346B017C01C0920E02D0920F026A
:1029A000E0921002F0921102C0920602D092070249
:1029B000E0920802F0920902A701960160E070E03F
:1029C00084EB93E40E9438346093120270931302F4
:1029D0008093140290931502A701960160E070E0C5
:1029E00084E393E40E94383460930A0270930B02EC
:1029F00080930C0290930D0220E030E044E353E416
:102A0000C701B6010E943934609316027093170211
:102A1000809318029093190261E470E082E20E94B0
:102A2000C9128C0163E270E081E20E94C9125C016C
:102A300061E070E080E20E94C91241E0892B09F454
:102A400040E094E6C92EE12C950160E182E894E033
:102A50000E941A0E64E670E086E20E94C912C82E37
:102A600062E370E085E20E94C9128C0166E970E0C1
:102A700084E20E94C9125C0161E070E083E20E947E
:102A8000C91241E0892B09F440E0EE24E39495015A
:102A90006BE086E994E00E941A0E8BE3E82E81E059
:102AA000F82E1CE0F70161917F0170E0812F0E94F8
:102AB000C912F701319780831F5F163199F7609132
:102AC0000A0170E08EE10E94C91280930A016091B0
:102AD0000B0170E08FE10E94C91280930B0141E06D
:102AE00060E080E00E94F01240E061E081E00E943E
:102AF000F01240E062E082E00E94F01240E064E008
:102B000083E00E94F01241E061EE84E00E94F01246
:102B100041E062E285E00E94F01241E06EE186E071
:102B20000E94F01242E062E587E00E94F01242E06B
:102B30006FE488E00E94F01242E061E589E00E94C3
:102B4000F01242E060E58AE00E94F01270E060E07E
:102B500085E50E94C912282F40E46FE270E086EEFE
:102B600094E00E948A0A61E070E086E50E94C91242
:102B7000282F40E26FE270E08BEE94E00E948A0A18
:102B800062E070E087E50E94C912282F48E063E206
:102B900070E080EF94E00E948A0A63E070E088E5CC
:102BA0000E94C912282F42E063E270E085EF94E0B2
:102BB0000E948A0A64E070E089E50E94C912282F09
:102BC00040E16FE270E08AEF94E00E948A0A65E0DB
:102BD00070E08AE50E94C912282F41E06FE270E0A0
:102BE0008FEF94E00E948A0A66E070E08BE50E9415
:102BF000C912282F42E06FE270E084E095E00E9465
:102C00008A0A67E070E08CE50E94C912282F40E430
:102C100066E270E089E095E00E948A0A68E070E070
:102C20008DE50E94C912282F40E46CE270E08EE02E
:102C300095E00E948A0A69E070E08EE50E94C91260
:102C4000282F40E169E270E083E195E00E948A0A62
:102C50006AE070E08FE50E94C912282F40E163E22C
:102C600070E088E195E00E948A0A64E670E08AE2FA
:102C70000E94C912C82E6CE370E089E20E94C9125A
:102C80008C0162E370E088E20E94C9125C0161E09D
:102C900070E087E20E94C91241E0892B09F440E00C
:102CA000EE24E394950166E08AEA94E00E941A0E0D
:102CB00064E670E08EE20E94C912C82E6CE370E0F8
:102CC0008DE20E94C9128C0162E370E08CE20E94E6
:102CD000C9125C0161E070E08BE20E94C91241E020
:102CE000892B09F440E0EE24E394950169E08EEB32
:102CF00094E00E941A0E64E670E082E30E94C9121A
:102D0000C82E6CE370E081E30E94C9128C0162E37B
:102D100070E080E30E94C9125C0161E070E08FE224
:102D20000E94C91241E0892B09F440E0EE24E394AB
:102D300095016AE082ED94E00E941A0E8091F304FE
:102D4000809308018091FD048093090110926A022A
:102D5000109269021092140310923603109212031B
:102D600081E0809311031092EC0261E082E00E9406
:102D7000070561E083E00E9407058091B9008E7F1E
:102D80008093B9008091B9008D7F8093B90088E469
:102D90008093B80085E48093BC008BE797E0909324
:102DA0008C0280938B028CE797E090939002809343
:102DB0008F020E94CF0B45E560EF82E50E94A10AD9
:102DC00040E06BEF82E50E94A10A0F900F90DF9127
:102DD000CF911F910F91FF90EF90DF90CF90BF9018
:102DE000AF909F908F900895CF92DF92EF92FF92D5
:102DF000CF93DF936B017C01EA0120E030E044E3F4
:102E000053E40E942A36181654F420E030E044EBD4
:102E100053E4C701B6010E9438346B017C0125E3FD
:102E20003AEF4EE85CE3C701B6010E9401330E940D
:102E300037366B017C01BE01DD0F880B990B0E94B8
:102E4000A232A70196010E940133DF91CF91FF903A
:102E5000EF90DF90CF900895CF92DF92EF92FF92A4
:102E6000CF93DF936B017C01EA0120E030E044E383
:102E700053E40E942A36181654F420E030E044EB64
:102E800053E4C701B6010E9438346B017C0125E38D
:102E90003AEF4EE85CE3C701B6010E9401330E949D
:102EA00017356B017C01BE01DD0F880B990B0E9469
:102EB000A232A70196010E940133DF91CF91FF90CA
:102EC000EF90DF90CF9008952F923F924F925F92B4
:102ED0006F927F928F929F92AF92BF92CF92DF922A
:102EE000EF92FF920F931F93CF93DF93CDB7DEB78F
:102EF000C256D1090FB6F894DEBF0FBECDBF2DB7B5
:102F00003EB7A3963FAF2EAFA39781E08093130304
:102F100088E580933503109214031092360366E31C
:102F200088E294E00E94D40781E00E94040240E11C
:102F3000BE016F5E7F4F88E50E94F30F882309F47E
:102F400026C68091490190914A01A0914B01B09110
:102F50004C0189A39AA3ABA3BCA344E050E06FEF5C
:102F60007FEF85E491E00E94D5361DA24091CF020B
:102F70005091D00226EF2403B001259F700D11243B
:102F80007FAB6EAB4091D1025091D2022403C001BD
:102F9000259F900D11249FAF8EAF20913703309164
:102FA00038034091390350913A032AAB3BAB4CAB09
:102FB0005DAB50582AA73BA74CA75DA7AE014F5E5B
:102FC0005F4F3A0169E475E07FA36EA38B01212C6A
:102FD000312CD30113964C911397842F90E09C01D0
:102FE00054E0220F331F5A95E1F7222733701196D0
:102FF0006C91620F732F711DBAE0B69F9001B79F5D
:10300000300D1124880F991F880F991F88279370FE
:10301000F3016281680F792F711DB69FC001B79FC0
:10302000900D11244F70263FF7E23F0729F4863FA9
:1030300057E2950709F4CEC56EA97FA9260F371F61
:10304000AEADBFAD8A0F9B1FF80160817181D901C0
:10305000A61BB70BBD01B7FF03C071956195710940
:10306000653F71407CF4F80162817381DC01A61B2D
:10307000B70BBD01B7FF03C0719561957109653F3D
:10308000714024F05FEFF80151871286D801119644
:103090003C932E9313969C938E931297263F374220
:1030A00051F4863F974239F4EFEFD8011996EC932B
:1030B00019971A961C92D80118964C9318974D9010
:1030C0005C90B2017451072E000C880B990B0E9482
:1030D000A2326EA77FA788AB99AB20E030E044E333
:1030E00053EC6AA97BA98CA99DA90E949B3287FFFA
:1030F000A3C020E030E044EB53E46AA57BA58CA597
:103100009DA50E943834F62FE72FDC0125E33AEF26
:103110004EE85CE36F2F7E2FCD010E9401334B01FF
:103120005C010E9417356B017C01F8010280F3817C
:10313000E02DF9AFE8AFBF017F50072E000C880BE0
:10314000990B0E94A2326AAF7BAF8CAF9DAFC501D5
:10315000B4010E9437364B015C01A70196016EA5B0
:103160007FA588A999A90E94013324966CAF7DAFF1
:103170008EAF9FAF2497A50194016AAD7BAD8CAD56
:103180009DAD0E9401339B01AC0124966CAD7DADD9
:103190008EAD9FAD24970E94383420E030E040EAA5
:1031A00055E40E9439340E948E35D80115967C93DF
:1031B0006E931497A50194016EA57FA588A999A97E
:1031C0000E9401334B015C012AAD3BAD4CAD5DADBE
:1031D000C701B6010E9401339B01AC01C501B401D6
:1031E0000E94393420E030E040E755E40E94393451
:1031F0000E948E35F80177836683B9E4EB2EB5E043
:10320000FB2ED12C20E0D314E1F0211124C0D701F2
:1032100012962D913C9113974D915C9168AD79ADCB
:10322000C2010E948212D394BBE0EB0EF11C21E09C
:10323000883E934044F3E6CFFAA5EBA5ACA5BDA527
:1032400065CF211108C0E1E2F0E0EC0FFD1FE20DB7
:10325000F11D308223943394F3E06F0E711C055FEF
:103260001F4F24E03212B5CE81E0211080E0809320
:103270003A019DA1E9E4F5E080E02FEFA185AF3FA1
:1032800071F03285321520F432E0321508F4BDC4F5
:103290009F5F0A2E000CBB0BAB5BBE4F8C938F5F06
:1032A0003B96843059F79DA341E0421508F089C050
:1032B0006DB77EB77BAB6AAB022D10E0580171E0B1
:1032C000A71AB1088DB79EB7801B910B0FB6F89463
:1032D0009EBF0FBE8DBFADB7BEB711967D01EDB7D6
:1032E000FEB7E01BF10B0FB6F894FEBF0FBEEDBFAB
:1032F0002DB73EB72F5F3F4F6901A801BE016F5D3B
:103300007F4FCD010E94CC36A801BE016F5D7F4F7B
:10331000C6010E94CC3642E0622DC7010E94410ED8
:1033200043E0622DC6010E94410E34E0231270C4B6
:103330002DA2D7014C912BE04203F0011124E75B51
:10334000FA4F82E081874093470113963C91320304
:10335000F0011124E75BFA4F118630934501F60125
:103360008381481719F0E3E0381301C0E2E0EC0D67
:10337000FD2DF11D80812BE08202F0011124E75B1D
:10338000FA4F91E0918780934601D6019C9181E0AC
:10339000491711F0391380E0C80ED11CF601808165
:1033A0002BE08202F0011124E75BFA4F93E0918752
:1033B000809348014AA95BA90FB6F8945EBF0FBE7F
:1033C0004DBF1DA185E795E0AEA1BFA11A962C9136
:1033D0001A97211738F419962C9119972F3F11F04D
:1033E0001A961C93EEA1FFA13B96FFA3EEA38E17A6
:1033F0009F0751F7111103C021100C94B224F091D2
:103400004701FEABFF3F09F419C5E0914501EF3FCD
:1034100009F414C58BE0F802D0011124A75BBA4F60
:10342000E802F0011124E75BFA4F228133814081E9
:10343000518112966D917C9113978D919C910E9470
:10344000171320EE3EE245E652E40E9401336EA3DC
:103450007FA388A799A720E030E0A9010E949B32B2
:1034600087FF0EC020E030E044EB53E46EA17FA163
:1034700088A599A50E9439346EA37FA388A799A730
:10348000209148012EAF2F3F09F4DDC4A0914601E1
:10349000AF3F09F4D8C48BE02802F0011124E75BA8
:1034A000FA4FA802D0011124A75BBA4F12962D91B2
:1034B0003C9113974D915C916281738180819181E0
:1034C0000E94171320EE3EE245E652E40E940133CB
:1034D0006AAF7BAF8CAF9DAF20E030E0A9010E94C6
:1034E0009B3287FF0EC020E030E044EB53E46AAD2E
:1034F0007BAD8CAD9DAD0E9439346AAF7BAF8CAF94
:103500009DAF309137033AA7409138034EA75091B1
:1035100039035AAB60913A0368AF113009F0B7C470
:10352000E5E4F1E090E080E0382E01910F3F09F4EE
:10353000A8C47BE0070280011124075B1A4FD80161
:10354000ED90FC90880F991FFC01E55DFE4FC08057
:10355000D180A6016AA57EA58AA998AD0E94F4161D
:1035600040900401509005016090060170900701A1
:10357000A30192010E9401334B015C01A6016AA5DF
:103580007EA58AA998AD0E942C179B01AC01C301AE
:10359000B2010E9401332B013C01232D2D7FB70185
:1035A000FF0C880B990B211153C40E94A232A30176
:1035B00092010E9439340E948E3570937605609393
:1035C0007505F80162817381072E000C880B990B39
:1035D0000E94A232A50194010E9439340E948E35C6
:1035E0007093780560937705209100013091010177
:1035F00040910201509103012AAF3BAF4CAF5DAF48
:103600008AA59EA5AAA9B8AD8EA39FA3A8A7B9A76E
:103610006EA17FA188A599A50E948E358B01653B7F
:10362000710514F0085611406AA57EA58AA998ADC7
:103630000E948E359B01653B710514F02856314080
:10364000021B130B0D5E1F4F0732110560F020E0C7
:1036500030E0A9016AA57EA58AA998AD0E949B3297
:1036600081110C94B22420E030E044EB52E46AA5CE
:103670007EA58AA998AD0E942A36181674F420E017
:1036800030E047E853E46AA57EA58AA998AD0E9478
:103690009B3287FF02C00C94B2242EA13FA148A503
:1036A00059A520933703309338034093390350933F
:1036B0003A034AAD5BAD6CAD7DAD409300015093D4
:1036C000010160930201709303016091750570918F
:1036D000760579AF68AF80917705909178059BAFBB
:1036E0008AAF072E000C880B990B0E94A23220E0B3
:1036F00030E040EA55E40E9438349B01AC01505858
:103700002AA73BA74CA75DA7CEA0DFA0E8A4F9A4F9
:10371000F7FAF094F7F8F09420E030E044E353EC4B
:103720006EA17FA188A599A50E949B3287FF0AC040
:1037300020E030E044EB53E4C701B6010E94383486
:103740006B017C0125E33AEF4EE85CE3C701B6016B
:103750000E9401332B013C010E9417354B015C0193
:103760004AAD5BADBA01550F880B990B0E94A2328E
:1037700020E030E040E755E40E9438346B017C01E2
:10378000C301B2010E9437366EA37FA388A799A711
:10379000A50194016AA57BA58CA59DA50E94013376
:1037A0002B013C012EA13FA148A559A5C701B60197
:1037B0000E9401339B01AC01C301B2010E94393464
:1037C00020E030E040EA55E40E943934562E472E7E
:1037D000382E292EC701B6019058A50194010E94E8
:1037E00001336B017C012EA13FA148A559A56AA513
:1037F0007BA58CA59DA50E9401339B01AC01C7014F
:10380000B6010E94393420E030E040E755E40E94E0
:1038100039346EA37AA73C016091040170910501CF
:10382000809106019091070124966CAF7DAF8EAF19
:103830009FAF24979BE2E92E91E0F92ECE010196ED
:103840006C01A5E4B1E0BFAFAEAFE3EDF2E0FFABDA
:10385000EEABD7010D911D917D0117FF02C00C94B5
:103860003924B1E0BAABAEADBFADED91BFAFAEAFF5
:10387000EEA7AEA9BFA96D917D91BFABAEAB072EF0
:10388000000C880B990B0E94A23220E030E04AE73E
:1038900054E40E941C359B01AC0160E070E080E8BC
:1038A0009FE30E9438344B015C01BEA5BF3F09F481
:1038B000E4C72BE0B202F0011124E75BFA4F62810A
:1038C00073812AAD3BAD48AD59AD808191810E9495
:1038D00082122AA9AC012403B001259F700D112486
:1038E000072E000C880B990B0E94A232A5019401AF
:1038F0000E940133D6016D937D938D939C93139712
:10390000F4E0CF0ED11C23E331E02E153F0509F082
:10391000A0CF80913E01882309F43FC0C0902701C9
:10392000D0902801E0902901F0902A012EEB3FE988
:103930004AEA5FE3C701B6010E949B32882369F11E
:103940002EEB3FE94AEA5FE3C701B6010E942A363F
:1039500018160CF0AAC7A70196016EEB7FE98AEA58
:103960009FE30E941C356B017C01AC019B016985C2
:103970007A858B859C850E94013369877A878B873E
:103980009C87A701960169817A818B819C810E9425
:10399000013369837A838B839C8320E030E040EAA3
:1039A00055E4652D742D832D922D0E949B3287FF47
:1039B000A9C729853A854B855C85652D742D832D96
:1039C000922D0E94383424E020931A025AAE4EAA57
:1039D000C32CD22C562E472E382E292E4FEF5FE1C6
:1039E0005BAB4AAB6FEF7FE37FA76EA710911A0224
:1039F00020E030E040E755E46EA17AA5C3010E94C3
:103A00009B3287FF96C72D853E854F8558896EA1CD
:103A10007AA5C3010E943834186010931A02EEA0F0
:103A2000FAA46EAE21967FAE21976EA37AA73C01D1
:103A3000AFEFBFE1B9AFA8AF10E000E0652D742D86
:103A4000832D922D0E948E354B0160E074E1681940
:103A50007909072E000C880B990B0E94A2321B01DA
:103A60002C016AAD7EA9C6010E948E3568197909BC
:103A7000072E000C880B990B0E94A2329B01AC010F
:103A8000C201B1010E941C354B015C016AA97BA9EE
:103A90002EA53FA5621B730B072E000C880B990BFC
:103AA0000E94A2329B01AC01C501B4010E94013306
:103AB0004B015C014EA55FA5BA01550F880B990B10
:103AC0000E94A2329B01AC01C501B4010E943934AD
:103AD00020E030E040E05FE30E9439340E948E3500
:103AE0007093E8026093E7026EA17AA5C3010E9479
:103AF0008E354B0160E07FE068197909072E000CD4
:103B0000880B990B0E94A2322B013C01B7018EADAC
:103B100021969FAD21970E948E3568197909072E4D
:103B2000000C880B990B0E94A2329B01AC01C301CF
:103B3000B2010E941C356B017C0168AD79AD601B40
:103B4000710B072E000C880B990B0E94A2329B016F
:103B5000AC01C701B6010E9401336B017C01B801C1
:103B6000110F880B990B0E94A2329B01AC01C70177
:103B7000B6010E94393420E030E040E05FE30E946B
:103B800039340E948E357093E6026093E502A39665
:103B90008EAD9FADA3970FB6F8949EBF0FBE8DBF9D
:103BA000CE59DF4F0FB6F894DEBF0FBECDBFDF9109
:103BB000CF911F910F91FF90EF90DF90CF90BF902A
:103BC000AF909F908F907F906F905F904F903F90BD
:103BD0002F900895D80111969C938E9313969C93E1
:103BE0008E931297EFEF1996EC9319971A961C92F1
:103BF0001A9718961C92189715969C938E93149763
:103C000017969C938E93169726CB2187128647CBC7
:103C10008DA132E0231235C08130B9F5025011096F
:103C2000D601A00FB11FF601EA0DFB1D9E012B5D11
:103C30003F4F4C91608181E00E9441139E012B5DBA
:103C40003F4FD60111964C9111976C9183E00E94E1
:103C500041139E012B5D3F4FF7014181608182E05E
:103C60000E9441130E0D1F1DEA0CFB1C9E012B5DD3
:103C70003F4FD8014C91F701608180E00E944113D1
:103C800099CB821508F096CBC9CF811193CBD70180
:103C900011960C911197E02F002E000CFF0BFBA743
:103CA000EAA71C91212F012E000C330B3FA72EA752
:103CB000EBE01E02D0011124A75BBA4FED90FC90FF
:103CC00011971296CD90DC900E02F0011124E75B63
:103CD000FA4FA080B180828093809401A501B60143
:103CE000C7010E94171320EE3EE245E652E40E940F
:103CF00001332B013C0120E030E0A9010E949B32FE
:103D000087FF0AC020E030E044EB53E4C301B20176
:103D10000E9439342B013C01209137033091380344
:103D20004091390350913A03C301B2010E943834E3
:103D30000E94ED0E0E948E35CB010E947B0E8D32CB
:103D4000910509F035C620E03EE150E040E0B601C3
:103D5000C7010E9482122C0120E03EE150E040E0C9
:103D6000B401C5010E9482123C0130E020E040E035
:103D700058E2B601C7010E9482127C0130E020E0C7
:103D800040E058E2B401C5010E9482126C01B0907B
:103D90001A02640C751CB301770C880B990B0E94F6
:103DA000A2322B013C01EC0CFD1CB701FF0C880B6F
:103DB000990B0E94A2329B01AC01C301B2010E9487
:103DC0002A36181664F58B2D8970893061F530E03C
:103DD000A3E02BE06EA57FA5269FC001279F900D35
:103DE0001124875B9A4FFC01A1870A2E000CBB0BA4
:103DF000AB5BBE4F1C934AA55BA5249FD001259FBA
:103E0000B00D1124A75BBA4F19963C93E32F330FE3
:103E1000FF0BEB5BFE4F008382E08DA3CBCA8B2DA3
:103E200086708630A1F631E0A2E0D3CF8B2D83706F
:103E3000833009F008C630E0A1E0CBCF1EA21FA25C
:103E400018A619A61DCB1AAE1BAE1CAE1DAE59CBC3
:103E50000E94A232A50194010E9438340E948E353E
:103E60007093760560937505D80112966D917C91DB
:103E7000072E000C880B990B0E94A232A30192011D
:103E8000ABCB01968430910509F04ECBADCB14300D
:103E900009F0F1C280E090E0A0E8BFE38093040164
:103EA00090930501A0930601B0930701309146015C
:103EB00021963FAF21975BE0B52E4B2D3403800157
:103EC0001124075B1A4FD80112966D917C91072E31
:103ED000000C880B990B0E94A23228966CAF7DAF24
:103EE0008EAF9FAF2897F80160817181072E000C7B
:103EF000880B990B0E94A2322B013C012B2D3EAD69
:103F0000320380011124075B1A4FD80112966D917C
:103F10007C91072E000C880B990B0E94A2322C96E4
:103F20006CAF7DAF8EAF9FAF2C97F8016081718130
:103F3000072E000C880B990B0E94A23260966CAF82
:103F40007DAF8EAF9FAF6097F09145016596FFAF53
:103F500065972B2D3F2F320380011124075B1A4FE9
:103F6000D80112966D917C91072E000C880B990B4D
:103F70000E94A23269966CAF7DAF8EAF9FAF6997FA
:103F8000F80160817181072E000C880B990B0E944B
:103F9000A2326B017C012B2D3EA93203800111243A
:103FA000075B1A4FD80112966D917C91072E000C79
:103FB000880B990B0E94A2326D966CAF7DAF8EAFCD
:103FC0009FAF6D97F80160817181072E000C880BFF
:103FD000990B0E94A2324B015C016D962CAD3DAD58
:103FE0004EAD5FAD6D97C701B6010E940133649677
:103FF0006CAF7DAF8EAF9FAF6497A50194016996BA
:104000006CAD7DAD8EAD9FAD69970E9401339B0174
:10401000AC0164966CAD7DAD8EAD9FAD64970E9492
:10402000383464966CAF7DAF8EAF9FAF6497609667
:104030002CAD3DAD4EAD5FAD6097C301B2010E94A6
:104040003834A1966CAF7DAF8EAF9FAFA1972C9601
:104050002CAD3DAD4EAD5FAD2C97C301B2010E94BA
:1040600001332B013C0160962CAD3DAD4EAD5FADF3
:10407000609728966CAD7DAD8EAD9FAD28970E9460
:1040800001339B01AC01C301B2010E9438342B0102
:104090003C01A5019401C701B6010E9438344B01CF
:1040A0005C012C962CAD3DAD4EAD5FAD2C972896A6
:1040B0006CAD7DAD8EAD9FAD28970E9438342896AB
:1040C0006CAF7DAF8EAF9FAF28976D962CAD3DAD99
:1040D0004EAD5FAD6D9769966CAD7DAD8EAD9FAD0C
:1040E00069970E9438342C966CAF7DAF8EAF9FAF2E
:1040F0002C9728962CAD3DAD4EAD5FAD2897C501F0
:10410000B4010E9401336B017C012C962CAD3DADB6
:104110004EAD5FAD2C97A1966CAD7DAD8EAD9FADD4
:10412000A1970E9401339B01AC01C701B6010E9417
:1041300038346B017C01A1962CAD3DAD4EAD5FAD29
:10414000A19764966CAD7DAD8EAD9FAD64970E94D6
:10415000013360966CAF7DAF8EAF9FAF6097A501C6
:104160009401C301B2010E9401339B01AC0160962E
:104170006CAD7DAD8EAD9FAD60970E943834A701C8
:1041800096010E941C350E948E351B0170937605A6
:104190006093750528962CAD3DAD4EAD5FAD28976B
:1041A00064966CAD7DAD8EAD9FAD64970E9401337A
:1041B0004B015C012C962CAD3DAD4EAD5FAD2C9707
:1041C000C301B2010E9401339B01AC01C501B401DE
:1041D0000E943834A70196010E941C350E948E353A
:1041E0003B01709378056093770565E4862E61E066
:1041F000962E7FE1472E71E0572EEBE2AE2EE1E0E6
:10420000BE2EE12CFBE0FF2ED401ED914D01BF2D20
:10421000EB02F0011124E75BFA4FC080D1800281EC
:1042200013819301A101B801C6010E948212E1E04D
:10423000EE1508F019C1D5018D939C93E3948E2D52
:104240000E941F0FE82F880FFF0BEB5BFE4FE081F2
:104250002F2DE202F0011124E75BFA4F2281338116
:1042600040815181B801C6010E948212D2018D9312
:104270009D932D01B2E0AB0EB11CE4E0EE12C4CF71
:1042800065962FAD65973F2D2302F0011124E75B62
:10429000FA4F208031804280538021964FAD219784
:1042A0004302F0011124E75BFA4FA080B180028144
:1042B00013819801A501B201C1010E94171320EEDC
:1042C0003EE245E652E40E9401336B017C0120E0AE
:1042D00030E0A9010E949B3287FF0AC020E030E055
:1042E00044EB53E4C701B6010E9439346B017C01F1
:1042F0002EA13FA148A559A5C701B6010E94383497
:104300000E94ED0E60930A0270930B0280930C02E0
:1043100090930D025EA96BE05602F0011124E75B59
:10432000FA4F60807180C280D3809801A501B601E8
:10433000C3010E94171320EE3EE245E652E40E94BC
:1043400001334B015C0120E030E0A9010E949B3267
:1043500087FF0AC020E030E044EB53E4C501B4011C
:104360000E9439344B015C012EA13FA148A559A5FB
:10437000C501B4010E9438340E94ED0E60930E0214
:1043800070930F0280931002909311027EAD8BE028
:104390007802F0011124E75BFA4F00811181E2807D
:1043A000F3809701A801B601C3010E94171320EE04
:1043B0003EE245E652E40E9401334B015C0120E0FD
:1043C00030E0A9010E949B3287FF0AC020E030E064
:1043D00044EB53E4C501B4010E9439344B015C0144
:1043E0002EA13FA148A559A5C501B4010E943834AA
:1043F0000E94ED0E609312027093130280931402D8
:10440000909315029701A801B201C1010E941713F0
:1044100020EE3EE245E652E40E9401336B017C014E
:1044200020E030E0A9010E949B3287FF0AC020E013
:1044300030E044EB53E4C701B6010E9439346B010C
:104440007C012EA13FA148A559A5C701B6010E9434
:1044500038340E94ED0E6093160270931702809319
:10446000180290931902D4C8919581959109F5018C
:1044700091838083E3CE9EA99F3F19F180914501EE
:104480008F3FF9F02AA53EA54AA958AD6EA17FA19C
:1044900088A599A50E94383420910001309101012E
:1044A00040910201509103010E9439340E94ED0EA7
:1044B0006AAF7BAF8CAF9DAF90E082E0AFEFAEAB69
:1044C00027C0809146018F3F09F4BFC2BEADBF3FF8
:1044D00009F409C1209100013091010140910201CC
:1044E000509103016AAD7BAD8CAD9DAD0E94383417
:1044F0002AA53EA54AA958AD0E9439340E94ED0E66
:104500006EA37FA388A799A791E083E0EFEFEEABBE
:10451000E92F990FFF0B2296FFAFEEAF2297EB5BCF
:10452000FE4FE0812E2F0E2E000C330B2A963FAF4C
:104530002EAF2A97A82E880FBB08D501AB5BBE4FC4
:10454000AC914A2F0A2E000C550B26965FAF4EAF4A
:1045500026978BE0A802D0011124A75BBA4F0D91DA
:104560001C91119712964D905C90E802F001112475
:10457000E75BFA4F608171817FAF6EAF62807380BD
:104580009301AB01B201C8010E948212BC01990FD4
:10459000880B990B0E94A2326B017C01F501EE0F92
:1045A000FF1FE55DFE4F208031804801012E000C89
:1045B000AA08BB087EA97F3F09F0ABC037FE03C045
:1045C0003194219431082296EEADFFAD2297EE0F83
:1045D000FF1FE55DFE4F6081718177FF03C071951C
:1045E00061957109620D731D072E000C880B990BE4
:1045F0000E94A2322B013C01AC019B01C701B60114
:104600000E941C356093040170930501809306019C
:1046100090930701B101330C880B990B0E94A232D1
:10462000A30192010E941C356B017C016EAD7FAD30
:10463000601B710B072E000C880B990B0E94A23295
:10464000A70196010E9401332B013C01C501B40171
:104650000E94A2329B01AC01C301B2010E94393415
:104660000E948E3570937605609375058BE02696D3
:104670004EAD5FAD2697849FF001859FF00D11240C
:10468000E75BFA4F028113812A966EAD7FAD2A97C0
:10469000869FF001879FF00D1124E75BFA4F62813E
:1046A0007381601B710B072E000C880B990B0E9405
:1046B000A232A70196010E9401336B017C01B8016F
:1046C000110F880B990B0E94A2329B01AC01C7010C
:1046D000B6010E9439340E948E357093780560933C
:1046E00077050C94081BFEA9FF3F09F0BBC1909110
:1046F00045019F3F11F40C94081B8F3F09F0B7C18F
:104700003EAD93E080E0A3E03F3F09F0D8CE0C94AB
:10471000081B93014EAD5FADB201C8010E94171393
:1047200020EE3EE245E652E40E9401332B013C01BB
:1047300020E030E0A9010E949B3287FF0AC020E000
:1047400030E044EB53E4C301B2010E9439342B0141
:104750003C017EA9072F770F110BF801EE0FFF1F09
:10476000EE0FFF1FE65FFD4F2081318142815381B3
:10477000C301B2010E9438340E94ED0E6EA37FA3E4
:1047800088A799A72AA53EA54AA958AD0E94383402
:1047900020910001309101014091020150910301EB
:1047A0000E9439340E94ED0E6AAF7BAF8CAF9DAF93
:1047B000000F111FF801E15EFE4F60817181072E2D
:1047C000000C880B990B0E94A2329B01AC01C7011F
:1047D000B6010E941C356B017C01C0920401D0928D
:1047E0000501E0920601F0920701B101330C880B3C
:1047F000990B0E94A232A70196010E9401330E94E8
:104800008E356B01AB016AA57EA58AA998AD0E9481
:104810002C172B013C01C501B4010E94A232A30157
:1048200092010E9439340E948E3570937605609310
:104830007505A6016AA57EA58AA998AD0E94F41601
:104840006B017C018BE02696AEADBFAD26978A9FAB
:10485000F0018B9FF00D1124E75BFA4F62817381A9
:10486000072E000C880B990B0E94A232A70196011B
:1048700030CFEFEFEAAB0C94331CB801110F880B6B
:10488000990B0E94A23224962CAD3DAD4EAD5FAD8A
:1048900024970E940133A50194010E940133F6017F
:1048A00060837183828393832BC82EEB3FE94AEAAE
:1048B0005FE3C701B6010E949B3287FF6EC82EEBF3
:1048C0003FE94AEA5FE3C701B6010E941C356B016C
:1048D0007C01AC019B016D857E858F8598890E9446
:1048E00001336D877E878F87988BA70196016D8135
:1048F0007E818F8198850E9401336D837E838F83B3
:1049000098874BC829813A814B815C81652D742D34
:10491000832D922D0E9438346AAF7EAB6C0181E00A
:1049200080931A021BAA1AAA8FEF9FE19FA78EA756
:104930005DC82D813E814F8158856EA17AA5C30146
:104940000E9438347B018EAF21969FAF2197812F33
:10495000826080931A02EFEFFFE3F9AFE8AF0FEF49
:104960001FE16CC88FEF809352051092530580931E
:104970005D0510925E05809368051092690580932D
:104980007305109274051092370310923803109239
:10499000390310923A0380E090E0A4EBB2E48093F4
:1049A000000190930101A0930201B0930301EFC8AD
:1049B0008B33914011F00C94DA1920E03EE140E095
:1049C00058E2B601C7010E9482122C0120E03EE1AC
:1049D00040E058E2B401C5010E9482123C0130E07F
:1049E00020E050E040E0B601C7010E9482127C0145
:1049F00030E020E050E040E0B401C5010E948212A6
:104A00006C01B0901A02640C751CB301770C880B12
:104A1000990B0E94A2322B013C01EC0CFD1CB7014A
:104A2000FF0C880B990B0E94A2329B01AC01C301C1
:104A3000B2010E942A3618160CF0F8C98B2D8C7022
:104A40008C3009F0F8C933E0EFC95EA95F3F09F483
:104A50004ECE2EAD2F3F09F44ACE93E082E072E0B5
:104A60007EAB56CD91E082E061E06EAB51CD91E03E
:104A700080E01EAA4DCD2F923F924F925F926F928F
:104A80007F928F929F92AF92BF92CF92DF92EF92DE
:104A9000FF920F931F93CF93DF93CDB7DEB76A9743
:104AA0000FB6F894DEBF0FBECDBF8F8B4FEF60E027
:104AB00082E894E00E94030C4FEF60E086E994E006
:104AC0000E94030C6FEF7FE18FEF9FE10E943A0B92
:104AD0000E94800B8CE0EFECF2E0DE011196019079
:104AE0000D928A95E1F71092D0021092CF021092A7
:104AF000D2021092D1021092D4021092D3021092DC
:104B0000D6021092D5021092D8021092D7021092BB
:104B1000DA021092D9026E012DE0C20ED11C88E09B
:104B2000F60111928A95E9F71DE3E091E90424E08A
:104B3000E202F0011124E35EFA4F838181110BC080
:104B4000E091EE0434E0E302F0011124E35EFA4F59
:104B50008381882359F0115049F00E945E106CE364
:104B600070E080E090E00E94CE05DFCF81E080938E
:104B7000EE0480913C018A8F90914001998F1092B0
:104B80003E0110923C0110924001EF89E11194C066
:104B9000F6E0F88F312CEE24EA94AFE1FA2E0FEF15
:104BA0001FE10E94B30D0E945E100E946417909155
:104BB000240580912305992309F44AC181115BC022
:104BC000311088C0E5E4F1E091919F3F09F481E064
:104BD00029E431E02E173F07B9F7811170C06091C9
:104BE000750570917605072E000C880B990B0E94B5
:104BF000A23220E030E040E251E40E941C3520E087
:104C000030EC4FEF53E40E9438340E948E3570939D
:104C1000D0026093CF026091770570917805072EDE
:104C2000000C880B990B0E94A23220E030E040E299
:104C300051E40E941C3520E030EC4FEB53E40E941D
:104C400038340E948E357093D2026093D10280E096
:104C50000E94990D4FEF60E086E994E00E94F90C04
:104C6000E2E03E2EEE24EA94FFE1FF2E09E919E38B
:104C700031E03093230580912005811107C08F8991
:104C8000882309F41BC192E0391218C1E32DF0E02A
:104C9000EE0FFF1FA1E0B0E0AC0FBD1FAE0FBF1FB6
:104CA000E153FD4F832D863009F4DEC02D913D91F7
:104CB000219331938F5FF7CF22E0288F6BCF62E093
:104CC00081E00E949E0D4FEF62E086E994E00E9431
:104CD000F90CCECF8DEF830D0E941F0FE82F880FA8
:104CE000FF0BEB5BFE4F80818F3F09F48DC07EEFA1
:104CF000272E230C822D0E941F0FE82F880FFF0BF9
:104D0000EB5BFE4F80818F3F09F47EC08FEF830DF8
:104D10000E941F0FE82F880FFF0BEB5BFE4F808177
:104D20008F3F09F471C0A0907505B0907605809012
:104D30007705909078059401A50160E07FE080E020
:104D400094E10E9482122C01622C022C000C770844
:104D5000F301EB5BFE4FE0813BE0E302F001112445
:104D6000E75BFA4F628173819401A5018081918193
:104D70000E9482125C01660C771C88248394912C1B
:104D80008C0E9D1E860C971CB201550C880B990B3E
:104D90000E94A2322DEC3CEC4CE45FE30E941C35F7
:104DA0002B013C01B501BB0C880B990B0E94A23270
:104DB0009B01AC01C301B2010E941C359B01AC01F7
:104DC00060E070E080E89FE30E94383420E030E04B
:104DD0004AE754E40E9401330E948E35F40175873E
:104DE0006487222011F1F1E02F1631F122E0221622
:104DF00051F180E00E94990D4FEF60E086E994E068
:104E00000E94F90C33940AC062E081E00E949E0D7A
:104E10004FEF62E086E994E00E94F90C68EC70E0E4
:104E200080E090E00E94CE0523CF46E6E42E46E0E7
:104E3000F42E0FEF1FE1DDCFEE24EA943FE1F32ED5
:104E400006E616E0D6CF29E9E22E29E3F22EF1CFCD
:104E5000882309F410CF1092230568EC70E080E0FD
:104E600090E00E94CE0507CF81E080931F05FF8967
:104E7000F11143C08FECE82E82E0F82E8601B12CB0
:104E80003B1439F121E02B1538F4F8013497808177
:104E90009181F70191838083F701819191917F0145
:104EA0009E8B8D8BBE016B5E7F4FC8018C199D0957
:104EB0000E94A512B3940E5F1F4FE2CFB701C80145
:104EC0000E943A0B0E94800BE88D3E1608F469CED2
:104ED000CECFFA8DF0933C0181E0298D211101C0E4
:104EE00080E08093400163E084E00E949E0D4FEFDC
:104EF00063E086E994E00E94F90C6A960FB6F89494
:104F0000DEBF0FBECDBFDF91CF911F910F91FF90FC
:104F1000EF90DF90CF90BF90AF909F908F907F9059
:104F20006F905F904F903F902F9008951F920F9237
:104F30000FB60F9211248F939F938091E10090916F
:104F4000E100937F9093E10083FF0FC01092E9008E
:104F500091E09093EB001092EC0092E39093ED00BF
:104F60001092EB0298E09093F00082FF22C093E051
:104F70009093E9009091F200992319F09AE39093AD
:104F8000E8009091CC02992341F09091CC0291508D
:104F90009093CC02911101C05D989091EA029923FF
:104FA00041F09091EA0291509093EA02911101C070
:104FB000289884FF18C08091E2008E7E81608093E3
:104FC000E2008091E1008F7E8093E1008091CD022C
:104FD0008E7E80618093CD029F918F910F900FBE46
:104FE0000F901F90189580FFF7CF8091E2008E7E82
:104FF00080618093E2008091E1008E7E8093E100E9
:105000008091CD028E7E8160E5CF1F920F920FB608
:105010000F921124CF92DF92EF92FF920F931F9382
:105020002F933F934F935F936F937F938F939F93B0
:10503000AF93BF93EF93FF93CF93DF93CDB7DEB7DB
:105040006C97DEBFCDBF1092E9008091E80083FF2E
:1050500025C068E0CE0145960E94230382EF80932D
:10506000E8008D8987FF39C09091E80090FFFCCF60
:10507000982F907609F034C19E894F89588D2F89D9
:10508000F88C911131C0803861F58091CE02809307
:10509000F1001092F1008EEF8093E8006C960FB64D
:1050A000F894DEBF0FBECDBFDF91CF91FF91EF919E
:1050B000BF91AF919F918F917F916F915F914F9130
:1050C0003F912F911F910F91FF90EF90DF90CF9024
:1050D0000F900FBE0F901F9018959EEF9093E800D1
:1050E000C7CF1092F100D5CF913059F48111D3CFB1
:1050F0004130510581F68091CE028D7F8093CE02A2
:10510000CACF933049F48111C6CF4130510519F609
:105110008091CE028260F2CF953041F48091E80018
:1051200080FFFCCF20682093E300B5CF963009F0D4
:10513000A9C00B8D1C8D22E01092E9001092CA02CA
:105140001092C902F2122EC01092C8021092C70229
:105150000E9471031F8299E09983FA8291E09E83F5
:1051600090EA98879AEF99872091C9023091CA02F4
:10517000275F3F4F3C832B838D831092E900109271
:10518000CA021092C9021093C8020093C70249E0F4
:1051900050E0BE016F5F7F4F80E00E94EC020E94F2
:1051A000710379CF1093C8020093C7020E945D0378
:1051B000DC0112960D911C910115110509F451C1E4
:1051C000D801ED91FC910480F581E02DBE016B5E6C
:1051D0007F4FC8010995009709F03EC1F80100858D
:1051E0001185EACFF3E0FF120EC08F89882309F4FE
:1051F00040C0823061F440E86FE081EE92E00E94AE
:10520000B902811148CF81E28093EB0047CF813012
:1052100029F440E86BE085ED92E0F1CF833099F717
:105220000E945D03DC011296ED90FC908E010F5FF1
:105230001F4F6801E114F10479F0D701ED91FC9161
:105240000680F781E02DB801C7010995080F111DEF
:10525000F701E084F184EECFD8011C92F6010190B1
:105260000020E9F73197BF016C197D0940E0C601C4
:10527000C6CF6FEB72E0FB01449150E080E80E94E2
:10528000EC0209CF973009F4BECF983021F481E0C9
:105290008093F10000CF993009F0FDCE837009F0C2
:1052A000B2CFEDE0F1E081E031E096E321912223FD
:1052B00071F08093E9003093EB00DF0111972C919E
:1052C0002093EC009093ED008F5F873079F78EE7A5
:1052D0008093EA001092EA008F898093EB02DBCE84
:1052E0008B8D9C8D1092E9001092CA021092C90217
:1052F0009093C8028093C702898D811192C08E89D4
:105300009D89913A49F4813209F07DCF47E050E020
:1053100067E171E080E0B3CF913209F074CF83325E
:1053200069F48F89988DB0E0A0E080931301909389
:105330001401A0931501B0931601ADCE803269F42B
:105340008091E80082FFFCCF67E087E191E00E9456
:1053500023038BEF8093E8009ECE823209F09BCE30
:105360008F8980931E01EEEFFFE7859194918B3F2B
:105370009C4D51F1E0E0F8E0809117019091180107
:10538000A0911901B0911A01803B9440A105B1058B
:10539000F1F480911E0180FD1AC0EE3F8AE0F8070B
:1053A00089F587E797E791838083809160008093F8
:1053B000CB0288E19BE00FB6F894A895809360003B
:1053C0000FBE9093600067CEEEEFFAE0D5CF8081FC
:1053D00091818737974709F05ECEA895809160004C
:1053E0008861809360008091CB0280936000EE3FE3
:1053F0002AE0F20789F08091FE0A9091FF0A9183DA
:10540000808349CE808191818737980751F29093AC
:10541000FF0A8093FE0AC5CF1092FF0A1092FE0A7F
:105420003ACE0E945D03DC0112960D911C9101158C
:10543000110509F4E8CED801ED91FC910190F081BD
:10544000E02DBE016B5E7F4FC8010995811123CE0F
:10545000F80100851185EBCF181619060CF41BCE48
:10546000D2CEF1E0FF12BECE63EC72E004CF1F9209
:105470000F920FB60F9211242F933F934F935F9388
:105480006F937F938F939F93AF93BF93EF93FF930C
:105490008BE393E00E94F303FF91EF91BF91AF91F3
:1054A0009F918F917F916F915F914F913F912F913C
:1054B0000F900FBE0F901F9018951F920F920FB66E
:1054C0000F9211242F938F939F93EF93FF93E0916B
:1054D0004B03F0914C038081E0915103F091520312
:1054E00082FD1BC09081809154038F5F8F73209148
:1054F0005503821741F0E0915403F0E0E55CFC4F66
:10550000958F80935403FF91EF919F918F912F91ED
:105510000F900FBE0F901F9018958081F4CF1F92AF
:105520000F920FB60F9211242F933F938F939F9357
:10553000AF93BF938091B3029091B402A091B50252
:10554000B091B6023091B20223E0230F2D3758F507
:105550000196A11DB11D2093B2028093B3029093D6
:10556000B402A093B502B093B6028091B7029091B5
:10557000B802A091B902B091BA020196A11DB11D65
:105580008093B7029093B802A093B902B093BA0285
:10559000BF91AF919F918F913F912F910F900FBE2F
:1055A0000F901F90189526E8230F0296A11DB11D9C
:1055B000D2CF1F920F920FB60F9211242F933F93C9
:1055C0004F935F936F937F938F939F93AF93BF930B
:1055D000EF93FF938091B900887F803609F44AC029
:1055E000F0F5883209F4A7C018F5803109F49BC0A2
:1055F000B8F4882309F4F9C0883009F494C0FF9105
:10560000EF91BF91AF919F918F917F916F915F913A
:105610004F913F912F910F900FBE0F901F901895B3
:10562000883109F488C0803251F78093100314C088
:10563000803409F49DC040F48033B9F38833F9F61F
:105640008093100385ECB0C0803509F485C088359F
:1056500009F496C0883499F60E944A07D0CF883959
:1056600009F48CC038F5883729F050F4883611F0E9
:10567000803729F683E0809312031092B10257C05D
:10568000883809F47BC0803919F0803809F0B7CF29
:105690008091B102803208F071C0E091B10281E0E6
:1056A0008E0F8093B1028091BB00F0E0EF56FD4F6A
:1056B00080833DC0803B39F0E0F4803A09F479C042
:1056C000883A09F09CCF84E08093120310928E02F6
:1056D00010928D02E0918B02F0918C0209958091DD
:1056E0008D0281110FC081E080938D0210926B02B8
:1056F00009C0803C09F4A6CF883C09F4A3CF883BBD
:1057000009F07DCFE0918E0281E08E0F80938E02B2
:10571000F0E0E559FD4F80818093BB0090918E02AF
:1057200080918D0229C08091ED028093BB0085ECB1
:105730008093BC0064CF90910F0380910E03981763
:1057400058F5E0910F0381E08E0F80930F03F0E096
:10575000E251FD4F8081E9CFE0910F0381E08E0F90
:1057600080930F038091BB00F0E0E251FD4F8083F6
:1057700090910F0380910E039817C8F285E8D8CF57
:10578000E0910F0381E08E0F80930F038091BB00A7
:10579000F0E0E251FD4F80838091110381115CCFD5
:1057A00081E08093EC0284EA8093BC0010921203A3
:1057B00026CF85EC8093BC00109212038091B10239
:1057C000803230F4E091B102F0E0EF56FD4F1082EC
:1057D0006091B10270E0E0918F02F091900281E956
:1057E00092E009951092B1020ACF1092100334CFC3
:1057F000FC01A385B485109771F474876387858550
:105800009685DB0114962D913C91820F931F96870C
:1058100085870895DC018D919C9111970097D1F7B0
:105820006D937C93ECCF10923E0310923D0388EE73
:1058300093E0A0E0B0E080933F0390934003A093F7
:105840004103B093420326EA31E030933C032093B6
:105850003B032DEC30E030934803209347032CECBE
:1058600030E030934A032093490328EC30E0309332
:105870004C0320934B0329EC30E030934E032093EC
:105880004D032AEC30E03093500320934F032EEC6D
:1058900030E030935203209351031092540310923E
:1058A000550310925603109257031092DB03109287
:1058B000DA038093DC039093DD03A093DE03B093BF
:1058C000DF0328EB31E03093D9032093D8032FEF87
:1058D0003FEF3093E5032093E40310922B041092E2
:1058E0002A0480932C0490932D04A0932E04B0934B
:1058F0002F048AEC91E0909329048093280410925D
:105900004504109244048CED91E0909343048093FD
:10591000420480913A04811113C010923504109210
:10592000340481EF92E090933704809336048BE344
:1059300090E0909339048093380481E080933A0496
:105940000E94FC0864E374E00E94F82B8EEE91E064
:1059500090935D0480935C0480915404811113C082
:1059600010924F0410924E048CE293E090935104F5
:10597000809350048FE490E09093530480935204FA
:1059800081E0809354040E94FC086EE474E00E945D
:10599000F82B10927E0410927D04109280041092D5
:1059A0007F041092810484EF91E090937C048093B3
:1059B0007B0480917304811113C010926E041092C5
:1059C0006D048BE793E09093700480936F0487E3FA
:1059D00090E0909372048093710481E0809373044B
:1059E0000E94FC086DE674E00E94F82BE9E4F5E003
:1059F0008FEF1086818712863B9695E0E038F90795
:105A0000C1F7EDE1F5E012821382349685E0E934C6
:105A1000F807C9F7E6EEF4E081E01082848335965A
:105A200095E0ED31F907C9F7E2E8F4E084E6138286
:105A30001482158216821782118A828B838B749648
:105A400094E0E63EF90799F70895CF93DF93CDB739
:105A5000DEB728970FB6F894DEBF0FBECDBF78949F
:105A600084B5826084BD84B5816084BD85B5826063
:105A700085BD85B5816085BD80916E008160809314
:105A80006E0010928100809181008260809381007D
:105A9000809181008160809381008091800081608D
:105AA000809380008091910082608093910080912A
:105AB000910081608093910080919000816080933B
:105AC00090008091C10084608093C1008091C100EA
:105AD00082608093C1008091C10081608093C10089
